:100000000C945D000C9485000C9485000C94850084
:100010000C9485000C9485000C9485000C9485004C
:100020000C9485000C9485000C9485000C94770446
:100030000C9485000C9485000C9485000C9485002C
:100040000C94D5030C9485000C9445040C941F0467
:100050000C9485000C9485000C9485000C9485000C
:100060000C9485000C94850000000008000201003B
:100070000003040700000000000000000000000072
:10008000250028002B0000000000240027002A0083
:10009000040404040404040402020202020203032E
:1000A0000303030301020408102040800102040836
:1000B0001020010204081020330511241FBECFEFC9
:1000C000D8E0DEBFCDBF11E0A0E0B1E0E6EFF7E1A0
:1000D00002C005900D92AC3EB107D9F722E0ACEE1C
:1000E000B1E001C01D92AF3BB207E1F710E0CDE5F2
:1000F000D0E004C02197FE010E94F309CC35D1075E
:10010000C9F70E9490050C94F90B0C94000090E044
:10011000FC01EC55FF4F249180579F4FFC018491C7
:10012000882399F090E0880F991FFC01EA57FF4F50
:10013000A591B491FC01E458FF4F859194918FB73C
:10014000F894EC91E22BEC938FBF0895AF92BF929D
:10015000CF92DF92EF92FF920F931F93CF93DF9393
:100160006C017B018B01040F151FEB015E01AE18C2
:10017000BF08C017D10759F06991D601ED91FC91E4
:100180000190F081E02DC6010995892B79F7C50111
:10019000DF91CF911F910F91FF90EF90DF90CF9063
:1001A000BF90AF900895FC01538D448D252F30E012
:1001B000842F90E0821B930B541710F0CF96089574
:1001C00001970895FC01918D828D981761F0A28DA1
:1001D000AE0FBF2FB11D5D968C91928D9F5F9F7367
:1001E000928F90E008958FEF9FEF08952FB7F894C6
:1001F0008091F2019091F301A091F401B091F50189
:100200002FBF8093FE019093FF01A0930002B09353
:10021000010286EF91E00E94E20097FF26C02FB70F
:10022000F8948091F2019091F301A091F401B091C2
:10023000F5012FBF4091FE015091FF016091000236
:1002400070910102841B950BA60BB70B4091FA012C
:100250005091FB016091FC017091FD01841795079D
:10026000A607B707B0F28FEF9FEF0895FC01918DBD
:10027000828D981731F0828DE80FF11D858D90E009
:1002800008958FEF9FEF0895FC01918D228D892FA6
:1002900090E0805C9F4F821B91098F73992708958E
:1002A00086EF91E00E94440121E0892B09F420E0CF
:1002B000822F089580E090E0892B29F00E94500160
:1002C00081110C9400000895FC01A48DA80FB92F92
:1002D000B11DA35ABF4F2C91848D90E001968F736E
:1002E0009927848FA689B7892C93A089B1898C918D
:1002F000837080648C93938D848D981306C00288DC
:10030000F389E02D80818F7D80830895EF92FF92A5
:100310000F931F93CF93DF93EC0181E0888F9B8D28
:100320008C8D98131AC0E889F989808185FF15C0E2
:100330009FB7F894EE89FF896083E889F989808105
:100340008370806480839FBF81E090E0DF91CF91D4
:100350001F910F91FF90EF900895F62E0B8D10E0F6
:100360000F5F1F4F0F731127E02E8C8D8E110CC065
:100370000FB607FCFACFE889F989808185FFF5CFB0
:10038000CE010E946401F1CFEB8DEC0FFD2FF11D2A
:10039000E35AFF4FF0829FB7F8940B8FEA89FB89ED
:1003A00080818062CFCFCF93DF93EC01888D88234B
:1003B000B9F0AA89BB89E889F9898C9185FD03C0C8
:1003C000808186FD0DC00FB607FCF7CF8C9185FFAD
:1003D000F2CF808185FFEDCFCE010E946401E9CF8D
:1003E000DF91CF91089590E0FC01E859FF4F2491EF
:1003F000FC01EC55FF4F3491FC01E057FF4FE491B5
:10040000EE23C9F0222339F0233001F1A8F4213082
:1004100019F1223029F1F0E0EE0FFF1FE458FF4FF1
:10042000A591B4918FB7F894EC91611126C03095E5
:100430003E233C938FBF08952730A9F02830C9F0A0
:10044000243049F7809180008F7D03C08091800027
:100450008F7780938000DFCF84B58F7784BDDBCF2B
:1004600084B58F7DFBCF8091B0008F778093B000F3
:10047000D2CF8091B0008F7DF9CF3E2BDACF42E012
:1004800050E068E171E086EF91E00C94A600CF9314
:10049000DF93FC01448155816081718186EF91E099
:1004A0000E94A600EC010E943F028C0F9D1FDF916D
:1004B000CF910895CF93DF93FC0101900020E9F7DD
:1004C0003197AF01481B590BBC0186EF91E00E94A8
:1004D000A600EC010E943F028C0F9D1FDF91CF917F
:1004E0000895FB0144815581FC0124813581241745
:1004F000350778F080819181009759F0FB01608188
:1005000071816115710529F00E94EB0B21E0892BA7
:1005100009F020E0822F08950F931F93CF93DF936C
:10052000EC0188819981009759F02A813B81261737
:10053000370730F081E0DF91CF911F910F9108953F
:100540008B016F5F7F4F0E941E0B009759F09983BC
:1005500088831B830A832C813D81232B59F7FC015F
:100560001082E8CF80E0E7CFCF93DF93EC01888162
:100570009981009711F00E94950A198218821D82B4
:100580001C821B821A82DF91CF910895EF92FF9215
:100590000F931F93CF93DF938C017B01EB010990A5
:1005A0000020E9F72197C61BD70BBE010E948C02E1
:1005B000811109C0C801DF91CF911F910F91FF9068
:1005C000EF900C94B402F801D583C483B701808105
:1005D0009181DF91CF911F910F91FF90EF900C943B
:1005E000E40B0F931F93CF93DF93CDB7DEB76297E2
:1005F0000FB6F894DEBF0FBECDBF8C01CB01F80162
:100600001182108213821282158214824AE0BE0186
:100610006F5F7F4F0E94FC08BE016F5F7F4FC80174
:100620000E94C60262960FB6F894DEBF0FBECDBF21
:10063000DF91CF911F910F910895EF92FF920F9349
:100640001F93CF93DF93EC01FB01E080F180E11475
:10065000F10411F10481158101151105A9F08C81B6
:100660009D81080F191FB801CE010E948C028823BA
:1006700099F0288139818C819D81B701820F931F68
:100680000E94E40B1D830C83CE01DF91CF911F915B
:100690000F91FF90EF900895CE010E94B402F4CF25
:1006A000EF92FF920F931F93CF93DF93EC017B01A7
:1006B000198218821B821A821D821C82FB01019002
:1006C0000020E9F731978F01061B170BB8010E9434
:1006D0008C02811109C0CE01DF91CF911F910F9142
:1006E000FF90EF900C94B4021D830C83B7018881B6
:1006F0009981DF91CF911F910F91FF90EF900C9412
:10070000E40BAF92BF92CF92DF92EF92FF920F93E2
:100710001F93CF93DF936C015B017A01890124174A
:10072000350720F48F2D7901042F182F6AE171E02D
:10073000C6010E945003D5011496CD91DC91EC16B0
:10074000FD06E0F40C171D0708F4E801D501ED9152
:10075000FC911197EC0FFD1F108110826D917C911F
:100760006E0D7F1DC60161157105A1F00E94C602C4
:10077000F50180819181C80FD91F1883C601DF91CF
:10078000CF911F910F91FF90EF90DF90CF90BF908E
:10079000AF9008950E94B402EBCFFC01808191815B
:1007A000009711F00C94950A08951F920F920FB6BE
:1007B0000F9211242F933F938F939F93AF93BF93E7
:1007C0008091F2019091F301A091F401B091F501B3
:1007D0003091F10123E0230F2D3758F50196A11D2B
:1007E000B11D2093F1018093F2019093F301A09346
:1007F000F401B093F5018091ED019091EE01A0918B
:10080000EF01B091F0010196A11DB11D8093ED01A2
:100810009093EE01A093EF01B093F001BF91AF91DF
:100820009F918F913F912F910F900FBE0F901F902E
:10083000189526E8230F0296A11DB11DD2CF1F9255
:100840000F920FB60F9211242F933F934F935F9304
:100850006F937F938F939F93AF93BF93EF93FF9388
:1008600086EF91E00E946401FF91EF91BF91AF91FB
:100870009F918F917F916F915F914F913F912F91B8
:100880000F900FBE0F901F9018951F920F920FB6EA
:100890000F9211242F938F939F93EF93FF93E091E7
:1008A0000602F09107028081E0910C02F0910D02A6
:1008B00082FD1BC0908180910F028F5F8F7320910A
:1008C0001002821741F0E0910F02F0E0EA50FE4F73
:1008D000958F80930F02FF91EF919F918F912F91B0
:1008E0000F900FBE0F901F9018958081F4CF1F922C
:1008F0000F920FB60F9211242F933F934F935F9354
:100900006F937F938F939F93AF93BF93CF93DF9317
:10091000EF93FF938091EC01C091B702D0E087FF85
:1009200024C010928500109284008091EC018F5FAA
:100930008093EC018091EC01082E000C990B8C1730
:100940009D0724F48091EC018C30C4F180918400E7
:1009500090918500049680349C4908F47AC0809177
:10096000840090918500049676C08091EC01082E59
:10097000000C990B8C179D07C4F6E091EC018E2FAB
:10098000EE0F990BFC01EE0FFF1FE80FF91FED565C
:10099000FD4F808186FFC9CFE091EC018E2FEE0FD5
:1009A000990BFC01EE0FFF1FE80FF91FED56FD4FED
:1009B000808160E08F730E94F301B7CF20918400A3
:1009C00030918500E091EC018E2FEE0F990BFC0128
:1009D000EE0FFF1FE80FF91FED56FD4F8181928149
:1009E000820F931F9093890080938800E091EC011F
:1009F0008E2FEE0F990BFC01EE0FFF1FE80FF91F72
:100A0000ED56FD4F808186FF11C0E091EC018E2FE5
:100A1000EE0F990BFC01EE0FFF1FE80FF91FED56CB
:100A2000FD4F808161E08F730E94F301FF91EF9190
:100A3000DF91CF91BF91AF919F918F917F916F91F6
:100A40005F914F913F912F910F900FBE0F901F908C
:100A5000189580E49CE990938900809388008FEF3B
:100A60008093EC01E3CF1092F9011092F80188EE27
:100A700093E0A0E0B0E08093FA019093FB01A09393
:100A8000FC01B093FD018AE091E09093F70180931F
:100A9000F60185EC90E0909303028093020284ECCF
:100AA00090E0909305028093040280EC90E0909394
:100AB00007028093060281EC90E0909309028093F4
:100AC000080282EC90E090930B0280930A0286EC7D
:100AD00090E090930D0280930C0210920F021092FE
:100AE000100210921102109212028091B7028C3003
:100AF00098F491E0980F9093B7028093B80290E039
:100B0000FC01EE0FFF1FE80FF91FED56FD4F88EBBC
:100B10009BE09283818308958FEF8093B8020895BC
:100B2000CF93DF93CDB7DEB762970FB6F894DEBFF1
:100B30000FBECDBF789484B5826084BD84B58160DA
:100B400084BD85B5826085BD85B5816085BD809198
:100B50006E00816080936E00109281008091810010
:100B60008260809381008091810081608093810008
:100B7000809180008160809380008091B1008460CA
:100B80008093B1008091B00081608093B00080912B
:100B90007A00846080937A0080917A0082608093EA
:100BA0007A0080917A00816080937A0080917A0047
:100BB000806880937A001092C10082E00E948700D2
:100BC00083E00E94870084E00E94870085E00E9405
:100BD000870086E00E9487008091B8028C3008F080
:100BE00050C089E00E9487008091B802282F30E031
:100BF000F901EE0FFF1FE20FF31FED56FD4F90813D
:100C0000907C996090831092B9021092BA022CE005
:100C1000622F0E94E009829FB001112430E020E0A1
:100C2000AB01420F531FFA01EE0FFF1FE40FF51F38
:100C3000ED56FD4F908196FD16C02F5F3F4F2C3033
:100C4000310571F781110FC01092800082E080930E
:100C500081001092850010928400B19A80916F00FB
:100C6000826080936F00E091B8028E2F90E0FC01CB
:100C7000EE0FFF1FE80FF91FED56FD4F80818064D6
:100C80008083E0910602F091070282E08083E09188
:100C90000202F09103021082E0910402F091050239
:100CA0008FEC808310920E02E0910A02F0910B0209
:100CB00086E08083E0910802F091090280818061E2
:100CC0008083E0910802F09109028081886080832E
:100CD000E0910802F0910902808180688083E091B0
:100CE0000802F091090280818F7D808319E0412EF6
:100CF000512C612C712CB8E52B2EB2E03B2E86EFE7
:100D000091E00E944401181619060CF07BC06AE1BC
:100D100071E0CE010D960E9450030E94F60097FDEF
:100D20001EC08A309105D9F089831A8209891A89EF
:100D30000F5F1F4FB801CE010D960E948C028823D1
:100D400061F32D853E8589899A89BE016F5F7F4F4A
:100D5000820F931F0E94E40B1A8B098BDECF6BE18D
:100D600071E0CE0101960E945003BE016F5F7F4F7C
:100D7000CE010D960E947102182FCE0101960E949D
:100D8000CD03112309F44BC029893A8945E050E08D
:100D9000BE01635F7F4FCE0101960E94810389816E
:100DA0009A8110E000E0009721F00E94D508162FEC
:100DB000072FCE0101960E94CD03612F82E00E9491
:100DC000F301612F702FCE0107960E94F10260E2BD
:100DD00071E0CE0101960E945003BE01695F7F4F12
:100DE000CE0101960E941D030E944702CE0101968A
:100DF0000E94CD03CE0107960E94CD03CE010D9631
:100E00000E94CD0340E050E0452B09F478CF0E94CA
:100E10005001882309F46FCF0E9400006CCF63E378
:100E200071E0CE0101960E945003BE016F5F7F4FBB
:100E3000CE010D960E947102182FCE0101960E94DC
:100E4000CD03112331F129893A8945E050E0BE01F3
:100E5000635F7F4FCE0101960E94810389819A8151
:100E600010E000E0009721F00E94D508162F072F10
:100E7000CE0101960E94CD03612F83E00E94F30111
:100E8000612F702FCE0107960E94F10268E371E096
:100E9000A0CF6BE471E0CE0101960E945003BE0129
:100EA0006F5F7F4FCE010D960E947102182FCE0109
:100EB00001960E94CD03112309F4B7C089899A894C
:100EC000079770F1ED85FE85309751F1A681A43426
:100ED00069F461E084E00E94F30160E085E00E9433
:100EE000F30181E591E00E945A0288CFA13459F4C0
:100EF00060E084E00E94F30161E085E00E94F3017C
:100F000081E691E0F0CFA33561F460E084E00E94D7
:100F1000F30160E085E00E94F3018FE691E0E3CF0A
:100F2000A0E080ED8A0F8A3008F06DC00A2E000C18
:100F3000BB0BD0972FEF30E00E94EC09A301920188
:100F40000E944609F22EE32E022F132F86E00E9404
:100F500087000115110561F460E086E00E94F3014D
:100F6000B801CE0107960E94F1026FE771E031CF20
:100F70000F3F110511F461E0F0CFEEE6F0E084914F
:100F8000833029F140F48130C1F08230D9F000384B
:100F900011058CF7E1CF873031F1883061F1843071
:100FA000B1F7809180008062809380008F2D9E2D0C
:100FB00090938B0080938A00D3CF84B5806884BDE2
:100FC000F7BCCECF84B5806284BDF8BCC9CF809118
:100FD00080008068809380008F2D9E2D90938900E3
:100FE00080938800BDCF8091B00080688093B0006E
:100FF000F092B300B5CF8091B00080628093B000D2
:10100000F092B400ADCF18861F821A8619861C860E
:101010001B86A9831A82BE016F5F7F4FCE010796A0
:101020000E94C6026CE971E0D4CE6DEB71E0CE0196
:1010300001960E945003BE016F5F7F4FCE010D9657
:101040000E947102182FCE0101960E94CD03112338
:1010500009F497C029893A8946E050E0BE01635FF0
:101060007F4FCE0101960E94810389819A81C12C14
:10107000D12C7601009719F00E94D5086B018601EA
:10108000CE0101960E94CD03F0E2CF16F2E0DF061A
:10109000E4F58091B902E8E88E2E912C881A910827
:1010A00087FD9394880C991C880C991C092C000CC2
:1010B000AA08BB088091BA029101281B310987FD5B
:1010C0003395220F331F220F331F032E000C440BC6
:1010D000550B281939094A095B09D601053B110549
:1010E00014F0A4EBB0E0B7FF02C0B0E0A0E00E94B3
:1010F000700924EB30E040E050E00E9446096901AD
:101100007A01C80CD91CEA1CFB1C2091B8022C30B7
:1011100080F58091B90248E850E0481B510987FDED
:101120005395CA01880F991F880F991FC816D906B1
:1011300084F08091BA02F101E81BF10987FDF39573
:10114000CF01880F991F880F991FC816D9060CF474
:10115000C6010297880F991F4FB7F89430E0F90144
:10116000EE0FFF1FE20FF31FED56FD4F92838183B9
:101170004FBFB801CE0107960E94F10263EC71E007
:1011800028CE64ED71E0CE0101960E945003BE01AD
:10119000635F7F4FCE0101960E941D030E944702AC
:1011A000CE0101960E94CD0329CE1F93FC01992701
:1011B0008827BC01E89411911032E9F3193010F03E
:1011C0001E30C8F31B3251F01D3249F4689406C03A
:1011D0000E940709610F711D811D911D119110530E
:1011E0001A30B0F33EF490958095709561957F4FDD
:1011F0008F4F9F4F1F910895BB274A3031F4992399
:1012000022F4BDE2909581959F4F0C941D09592FB2
:10121000482F372F262F660F771F881F991F660FBD
:10122000771F881F991F620F731F841F951F660FFA
:10123000771F881F991F0895BB27FB015527AA27F1
:10124000880F991FAA1FA41710F0A41B8395505153
:10125000B9F7A05DAA3308F0A95DA193009779F7CB
:10126000B111B1931192CB010C943609DC01FC0150
:10127000672F71917723E1F7329704C07C916D93CA
:1012800070836291AE17BF07C8F30895052E97FBD0
:101290001EF400940E945D0957FD07D00E94AF091B
:1012A00007FC03D04EF40C945D09509540953095A1
:1012B00021953F4F4F4F5F4F0895909580957095C2
:1012C00061957F4F8F4F9F4F08950E94D109A59F31
:1012D000900DB49F900DA49F800D911D1124089531
:1012E000B7FF0C9465090E946509821B930B089552
:1012F0002F923F924F925F926F927F928F929F9226
:10130000AF92BF92CF92DF92EF92FF920F931F9313
:10131000CF93DF93CDB7DEB7CA1BDB0B0FB6F894C4
:10132000DEBF0FBECDBF09942A88398848885F8404
:101330006E847D848C849B84AA84B984C884DF8075
:10134000EE80FD800C811B81AA81B981CE0FD11D59
:101350000FB6F894DEBF0FBECDBFED010895A1E238
:101360001A2EAA1BBB1BFD010DC0AA1FBB1FEE1F1F
:10137000FF1FA217B307E407F50720F0A21BB30B6A
:10138000E40BF50B661F771F881F991F1A9469F7E6
:1013900060957095809590959B01AC01BD01CF0142
:1013A0000895A29FB001B39FC001A39F700D811D3E
:1013B0001124911DB29F700D811D1124911D08955E
:1013C000991B79E004C0991F961708F0961B881F97
:1013D0007A95C9F7809508950E94D109B7FF0895BD
:1013E000821B930B0895EE0FFF1F0590F491E02DE3
:1013F00009940F931F93CF93DF938230910510F4DC
:1014000082E090E0E091BD02F091BE0230E020E089
:10141000B0E0A0E0309799F42115310509F44AC0F5
:10142000281B390B24303105D8F58A819B81611541
:10143000710589F1FB0193838283FE0111C0408114
:1014400051810281138148175907E0F04817590765
:1014500099F4109761F012960C93129713961C93BF
:101460003296CF01DF91CF911F910F910895009394
:10147000BD021093BE02F4CF2115310551F0421781
:10148000530738F0A901DB019A01BD01DF01F80122
:10149000C1CFEF01F9CF9093BE028093BD02CDCFB3
:1014A000FE01E20FF31F819391932250310939839A
:1014B0002883D7CF2091BB023091BC02232B41F46B
:1014C00020910201309103013093BC022093BB02B2
:1014D00020910001309101012115310541F42DB712
:1014E0003EB74091040150910501241B350BE0915A
:1014F000BB02F091BC02E217F307A0F42E1B3F0BD6
:101500002817390778F0AC014E5F5F4F2417350775
:1015100048F04E0F5F1F5093BC024093BB02819373
:1015200091939FCFF0E0E0E09CCFCF93DF930097C3
:10153000E9F0FC01329713821282A091BD02B091B2
:10154000BE02ED0130E020E01097A1F4208131814E
:10155000820F931F2091BB023091BC0228173907DC
:1015600009F061C0F093BC02E093BB02DF91CF9120
:101570000895EA01CE17DF07E8F54A815B819E01F5
:1015800041155105B1F7E901FB83EA83499159916E
:10159000C40FD51FEC17FD0761F48081918102967D
:1015A000840F951FE90199838883828193819B83AE
:1015B0008A83F0E0E0E012968D919C91139700975A
:1015C000B9F52D913C911197CD010296820F931F91
:1015D0002091BB023091BC022817390739F63097A9
:1015E00051F51092BE021092BD02B093BC02A093BE
:1015F000BB02BCCFD383C28340815181840F951F2E
:10160000C817D90761F44E5F5F4F88819981480FF1
:10161000591F518340838A819B8193838283211543
:10162000310509F0B0CFF093BE02E093BD029ECF2A
:10163000FD01DC01C0CF13821282D7CFB0E0A0E061
:10164000E4E2FBE00C947A098C01009751F4CB01A1
:101650000E94F9098C01C801CDB7DEB7E0E10C9416
:101660009609FC01E60FF71F9C0122503109E21791
:10167000F30708F49DC0D901CD91DC911197C617ED
:10168000D70798F0C530D10530F3CE0104978617FF
:10169000970708F3C61BD70B2297C193D1936D937D
:1016A0007C93CF010E94950AD6CF5B01AC1ABD0A8C
:1016B0004C018C0E9D1EA091BD02B091BE02512C1A
:1016C000412CF12CE12C109731F58091BB029091C7
:1016D000BC028815990509F05CC04616570608F04B
:1016E00058C08091000190910101009741F48DB79D
:1016F0009EB74091040150910501841B950BE8179A
:10170000F90708F055C0F093BC02E093BB02F90161
:1017100071836083A0CF8D919C91119712966C90EC
:10172000129713967C901397A815B90559F56C017B
:1017300042E0C40ED11CCA14DB0420F1AC014A19EA
:101740005B09DA011296159780F0628273825183E9
:101750004083D9016D937C93E114F10471F0D701BA
:101760001396FC93EE93129776CF22968C0F9D1FC3
:10177000F90191838083F301EFCFF093BE02E093F0
:10178000BD0269CF4816590608F42C017D01D3012A
:101790009ACFCB010E94F9097C01009749F0AE0174
:1017A000B8010E94DB0BC8010E94950A870153CF44
:1017B00010E000E050CFFB01DC0102C001900D926F
:1017C00041505040D8F70895FB01DC0101900D9283
:1017D0000020E1F70895FB01DC014150504030F05A
:1017E0008D910190801919F40020B9F7881B990B8D
:0617F0000895F894FFCFFC
:1017F6000000BF028000000000008601A600D300A2
:10180600D3014401E20036010D0A004C4544310083
:101816004C4544312061637475616C697A61646F0B
:101826003A20004C454432004C45443220616374F2
:1018360075616C697A61646F3A20004D4F544F525E
:10184600004D6F746F723A204164656C616E746509
:10185600004D6F746F723A20417472C3A173004DCC
:101866006F746F723A20446574656E69646F004DDB
:101876006F746F723A2056656C6F63696461642099
:10188600616A75737461646120612000436F6D61E4
:101896006E646F206465206D6F746F72206E6F20AA
:1018A6007265636F6E6F6369646F3A2000534552C9
:1018B600564F00536572766F206D6F7669646F20A0
:1018C600613A2000436F6D616E646F206E6F207207
:0C18D60065636F6E6F6369646F3A2000F9
:00000001FF
