:100000000C9462000C948A000C948A000C948A0070
:100010000C948A000C948A000C948A000C948A0038
:100020000C948A000C948A000C948A000C948A0028
:100030000C948A000C948A000C948A000C948A0018
:100040000C946D040C948A000C943B040C941504DD
:100050000C948A000C948A000C948A000C948A00F8
:100060000C948A000C948A000000000024002700F1
:100070002A0000000000250028002B0000000008D6
:10008000000201000003040700000000000000005F
:1000900000000000230026002900040404040404D6
:1000A0000404020202020202030303030303010227
:1000B00004081020408001020408102001020408F6
:1000C0001020B70411241FBECFEFD8E0DEBFCDBF94
:1000D00011E0A0E0B1E0EAE1F2E102C005900D928A
:1000E000AA38B107D9F722E0AAE8B1E001C01D9211
:1000F000A334B207E1F710E0C2E6D0E004C02197D4
:10010000FE010E940509C136D107C9F70E94040506
:100110000C940B090C940000CF92DF92EF92FF92A7
:10012000CF93DF93B0913702A0E08111AB2F809184
:10013000380290E0880F991FAC0140575F4FC09084
:100140003D02D0903E02E0903F02F090400230E04D
:1001500020E0FA01C591D491E881B90190E080E0F6
:10016000EB23EA130AC02F5F3F4F6C157D058E0508
:100170009F0578F36FEF7FEFCB01DF91CF91FF9079
:10018000EF90DF90CF900895AF92BF92CF92DF9221
:10019000EF92FF920F931F93CF93DF936C017B013C
:1001A0008B01040F151FEB015E01AE18BF08C017CD
:1001B000D10759F06991D601ED91FC910190F08140
:1001C000E02DC6010995892B79F7C501DF91CF9103
:1001D0001F910F91FF90EF90DF90CF90BF90AF9065
:1001E0000895FC01538D448D252F30E0842F90E03D
:1001F000821B930B541710F0CF9608950197089522
:10020000FC01918D828D981761F0A28DAE0FBF2FEA
:10021000B11D5D968C91928D9F5F9F73928F90E040
:1002200008958FEF9FEF0895FC01918D828D9817AF
:1002300031F0828DE80FF11D858D90E008958FEFEC
:100240009FEF0895FC01918D228D892F90E0805CB5
:100250009F4F821B91098F739927089583E991E03D
:100260000E94220121E0892B09F420E0822F0895C9
:1002700080E090E0892B29F00E942E0181110C94DE
:1002800000000895FC01A48DA80FB92FB11DA35A39
:10029000BF4F2C91848D90E001968F739927848FA6
:1002A000A689B7892C93A089B1898C9183708064C9
:1002B0008C93938D848D981306C00288F389E02D6A
:1002C00080818F7D80830895EF92FF920F931F931B
:1002D000CF93DF93EC0181E0888F9B8D8C8D9813F9
:1002E0001AC0E889F989808185FF15C09FB7F89405
:1002F000EE89FF896083E889F98980818370806451
:1003000080839FBF81E090E0DF91CF911F910F919B
:10031000FF90EF900895F62E0B8D10E00F5F1F4FAA
:100320000F731127E02E8C8D8E110CC00FB607FCB9
:10033000FACFE889F989808185FFF5CFCE010E9447
:100340004201F1CFEB8DEC0FFD2FF11DE35AFF4F72
:10035000F0829FB7F8940B8FEA89FB8980818062D5
:10036000CFCFCF93DF93EC01888D8823B9F0AA8992
:10037000BB89E889F9898C9185FD03C0808186FD60
:100380000DC00FB607FCF7CF8C9185FFF2CF8081AF
:1003900085FFEDCFCE010E944201E9CFDF91CF91E1
:1003A0000895CF93DF9390E0FC01E255FF4F249135
:1003B00086569F4FFC0184918823D1F090E0880FEE
:1003C000991FFC01E859FF4FA591B491FC01EE582B
:1003D000FF4FC591D491623071F49FB7F8943C916E
:1003E000822F809583238C93E8812E2B28839FBFB7
:1003F000DF91CF9108958FB7F894EC912E2B2C9329
:100400008FBFF6CF3FB7F89480918B0190918C010C
:10041000A0918D01B0918E0126B5A89B05C02F3FFC
:1004200019F00196A11DB11D3FBFBA2FA92F982F1A
:100430008827BC01CD01620F711D811D911D42E015
:10044000660F771F881F991F4A95D1F708958F92DD
:100450009F92AF92BF92CF92DF92EF92FF924B01A9
:100460005C010E9402026B017C010E9402026C1975
:100470007D098E099F09683E734081059105A8F3A7
:1004800021E0821A9108A108B10888EEC80E83E025
:10049000D81EE11CF11C81149104A104B10429F7B8
:1004A000FF90EF90DF90CF90BF90AF909F908F9094
:1004B00008958F929F92AF92BF92EF92FF920F9307
:1004C0001F93CF93DF93CDB7DEB7C054D1400FB6A3
:1004D000F894DEBF0FBECDBF2FB7F89480918F0187
:1004E00090919001A0919101B09192012FBF409104
:1004F000390250913A0260913B0270913C028C01AA
:100500009D01041B150B260B370BB901A801403DBB
:10051000574061057105A0F480914102C05CDE4F37
:100520000FB6F894DEBF0FBECDBFDF91CF911F9104
:100530000F91FF90EF90BF90AF909F908F90089594
:100540008093390290933A02A0933B02B0933C020D
:100550001092340210923302109232021092310241
:100560001092300262E0809135020E94D10161E078
:1005700070E080E090E00E94270261E08091350207
:100580000E94D1018091350290E0FC01E458FF4FB8
:100590002491FC01E255FF4F3491FC01E656FF4FD8
:1005A000E491EE23D9F0222359F0233009F44BC013
:1005B00008F03EC0213009F44CC0223009F44DC08F
:1005C000F0E0EE0FFF1FEE58FF4FA591B4918FB7EB
:1005D000F894EC9130953E233C938FBF8091360286
:1005E0008551823008F046C08BE291E10197F1F726
:1005F00062E0809135020E94D1018091420290E038
:100600008230910538F0880F991F880F991F059740
:100610000197F1F7F89480E00E948C006F3F7F4FC4
:100620008F4F9F4F71F510924102789480E076CF02
:100630002730B1F02830D1F0243009F0C1CF8091BB
:1006400080008F7D03C0809180008F778093800031
:10065000B7CF84B58F7784BDB3CF84B58F7DFBCF03
:100660008091B0008F778093B000AACF8091B000C6
:100670008F7DF9CF64E170E080E090E00E94270276
:10068000B7CF81E00E948C006F3F7F4F8F4F9F4F0D
:1006900051F2CE0101967C015E019FEBA91A9EEFFB
:1006A000B90A870180E00E948C00F80160837183A1
:1006B0008283938381E00E948C00F80164837583B8
:1006C00086839783085F1F4FA016B10659F7789469
:1006D00030E020E0F70180809180A280B3804481E7
:1006E000558166817781FFEF8F169F06AF06BF06A3
:1006F00031F04F3F0FEF50076007700719F4109269
:10070000410294CFF90183E0F595E7958A95E1F7E9
:10071000E05DFD4F8081880F84169506A606B7061A
:1007200018F180832F5F3F4F18E0E10EF11C283253
:10073000310581F6409134022091300280913102DE
:10074000280F3327331F80913202280F311D8091EB
:100750003302820F932F911D99274817190679F6B6
:1007600081E080934102DACE8160DBCFFC01019011
:100770000020E9F73197AF01481B590BBC0183E911
:1007800091E00C94C4008F929F92AF92BF920F930E
:100790001F93CF93DF93CDB7DEB7A1970FB6F89431
:1007A000DEBF0FBECDBF19A2423008F44AE08E0171
:1007B0000F5D1F4F842E912CB12CA12CA50194010B
:1007C0000E94E308E62FB901CA01EA30F4F4E05DC3
:1007D000D801EE938D01232B242B252B79F790E064
:1007E00080E0109719F0CD010E94B603A1960FB6D4
:1007F000F894DEBF0FBECDBFDF91CF911F910F9157
:10080000BF90AF909F908F900895E95CE1CFCF9318
:10081000DF930E94B603EC0182E191E00E94B603EF
:100820008C0F9D1FDF91CF9108951F920F920FB6ED
:100830000F9211242F933F934F935F936F937F9366
:100840008F939F93AF93BF93EF93FF9383E991E0CF
:100850000E944201FF91EF91BF91AF919F918F91C3
:100860007F916F915F914F913F912F910F900FBEAC
:100870000F901F9018951F920F920FB60F92112490
:100880002F938F939F93EF93FF93E091A301F091A8
:10089000A4018081E091A901F091AA0182FD1BC011
:1008A00090818091AC018F5F8F732091AD01821791
:1008B00041F0E091AC01F0E0ED56FE4F958F809352
:1008C000AC01FF91EF919F918F912F910F900FBEEF
:1008D0000F901F9018958081F4CF1F920F920FB642
:1008E0000F9211242F933F938F939F93AF93BF93B6
:1008F00080918F0190919001A0919101B09192010E
:1009000030918A0123E0230F2D3758F50196A11D60
:10091000B11D20938A0180938F0190939001A09341
:100920009101B093920180918B0190918C01A091E3
:100930008D01B0918E010196A11DB11D80938B0197
:1009400090938C01A0938D01B0938E01BF91AF91D4
:100950009F918F913F912F910F900FBE0F901F90FD
:10096000189526E8230F0296A11DB11DD2CFE3E909
:10097000F1E01382128288EE93E0A0E0B0E084837D
:100980009583A683B78384E091E09183808385EC8F
:1009900090E09587848784EC90E09787868780EC49
:1009A00090E0918B808B81EC90E0938B828B82EC3A
:1009B00090E0958B848B86EC90E0978B868B118EE4
:1009C000128E138E148EA0E3B2E082E015968C9303
:1009D00015978BE016968C931697E0EBF0E0E49178
:1009E0001796EC931797ECE9F0E0E4911896EC93E6
:1009F000189740E85EE360E070E01D964D935D93CC
:100A00006D937C9350970895789484B5826084BDEB
:100A100084B5816084BD85B5826085BD85B5816002
:100A200085BD80916E00816080936E001092810080
:100A3000809181008260809381008091810081603B
:100A400080938100809180008160809380008091FC
:100A5000B10084608093B1008091B0008160809388
:100A6000B00080917A00846080937A0080917A004F
:100A7000826080937A0080917A00816080937A000E
:100A800080917A00806880937A001092C100E09192
:100A9000A301F091A40182E08083E0919F01F09195
:100AA000A0011082E091A101F091A2018FEC80835E
:100AB0001092AB01E091A701F091A80186E080833C
:100AC000E091A501F091A601808180618083E09191
:100AD000A501F091A601808188608083E091A50145
:100AE000F091A601808180688083E091A501F0915A
:100AF000A60180818F7D808362E0809135020E9413
:100B0000D1012FB7F89480918F0190919001A0911D
:100B10009101B09192012FBF805D9740A109B10969
:100B20008093390290933A02A0933B02B0933C0227
:100B300087E38093420220E4322E00E010E00E941E
:100B40005902882341F0809136028C3009F4A3C009
:100B500048F48B3001F1C12CD12C80ECE82E8FE7CA
:100B6000F82E43C085518230B0F7C09132026C2F0D
:100B700070E0762F662766277F7780913302682B97
:100B800090E080E00E94BA072DEC3CEC4CEC5DE379
:100B90000E9471089CC06091320270E090E080E099
:100BA0000E94BA076B017C01C0913302C7FF0AC0E3
:100BB000AC019B0160E070E080E89FEB0E941907A8
:100BC0006B017C01CF706C2F70E090E080E00E94A0
:100BD000BC072DEC3CEC4CEC5DE30E947108A701D6
:100BE00096010E941A076B017C0130927C00809173
:100BF0007A00806480937A0080917A0086FDFCCF31
:100C0000C0917800D0917900A7019601C701B60183
:100C10000E94DE08882309F463C085E191E00E9408
:100C2000070483E691E00E94B6036E010D2E000CCE
:100C3000EE08FF084AE0C701B601F7FE0DC06DE2FD
:100C400083E991E00E94640166277727CB016C1944
:100C50007D098E099F094AE00E94C30382E191E069
:100C60000E94B603C53FD14024F082E791E00E9484
:100C7000070460ED77E080E090E00E942702011514
:100C8000110509F45CCF0E942E01882309F457CF87
:100C90000E94000054CFC09132026C2F70E090E0AF
:100CA00080E00E94BA076B017C01609133026F7093
:100CB00070E090E080E00E94BC072DEC3CEC4CEC36
:100CC0005DE30E947108A70196010E941A076B015B
:100CD0007C01C7FF8ACFF7FAF094F7F8F09485CF3C
:100CE00083E391E00E94B60346015701E894B7F808
:100CF0002FEF3FEF4FE75FE7C501B4010E94DE0829
:100D0000811120C02FEF3FEF4FE75FE7C501B4012E
:100D10000E9486071816B4F481E491E00E94B6039D
:100D200082E191E00E94B60320E030E040EF51E420
:100D3000C701B6010E946C0818160CF072CF89E446
:100D400091E06DCF2FEF3FEF4FE75FE4C701B601B2
:100D50000E946C0818161CF485E491E0DFCF2FEF99
:100D60003FEF4FE75FECC701B6010E94860787FDA2
:100D7000F3CF20E030E0A901C701B6010E94860749
:100D800087FF54C06DE283E991E00E946401C701CE
:100D9000B60190582AE037ED43EA5BE30E941A0758
:100DA0002B013C010E948B074B015C010E94BA079A
:100DB0009B01AC01C301B2010E9419072B013C0148
:100DC0004AE0C501B4010E94C3036EE283E991E0E9
:100DD0000E94640120E030E040E251E4C301B2012E
:100DE0000E9471082B013C010E948B074B01B12C22
:100DF000A12C4AE0C501B4010E94C303C501B4019E
:100E00000E94BA079B01AC01C301B2010E941907FD
:100E100020E030E040E251E40E9471080E948B071C
:100E200090E080E04AE00E94C3037ACFC701B60198
:100E3000B1CF5058BB27AA270E9431070C94320823
:100E40000E94240838F00E942B0820F039F49F3FBC
:100E500019F426F40C9421080EF4E095E7FB0C94A9
:100E60001B08E92F0E94430858F3BA17620773075B
:100E70008407950720F079F4A6F50C9465080EF424
:100E8000E0950B2EBA2FA02D0B01B90190010C019A
:100E9000CA01A0011124FF27591B99F0593F50F4B2
:100EA000503E68F11A16F040A22F232F342F44270A
:100EB000585FF3CF469537952795A795F040539502
:100EC000C9F77EF41F16BA0B620B730B840BBAF0D2
:100ED0009150A1F0FF0FBB1F661F771F881FC2F73D
:100EE0000EC0BA0F621F731F841F48F48795779551
:100EF0006795B795F7959E3F08F0B0CF9395880F0B
:100F000008F09927EE0F9795879508950E94F707A7
:100F100008F481E008950E944B0888F09F5798F0EC
:100F2000B92F9927B751B0F0E1F0660F771F881FEE
:100F3000991F1AF0BA95C9F714C0B13091F00E9408
:100F40006508B1E008950C946508672F782F88270D
:100F5000B85F39F0B93FCCF3869577956795B3952F
:100F6000D9F73EF490958095709561957F4F8F4F9E
:100F70009F4F0895E89409C097FB3EF490958095A3
:100F8000709561957F4F8F4F9F4F9923A9F0F92F4F
:100F900096E9BB279395F695879577956795B795CD
:100FA000F111F8CFFAF4BB0F11F460FF1BC06F5FB3
:100FB0007F4F8F4F9F4F16C0882311F096E911C0C5
:100FC000772321F09EE8872F762F05C0662371F0E6
:100FD00096E8862F70E060E02AF09A95660F771FFA
:100FE000881FDAF7880F9695879597F90895990FD6
:100FF0000008550FAA0BE0E8FEEF16161706E807E3
:10100000F907C0F012161306E407F50798F0621B03
:10101000730B840B950B39F40A2661F0232B242BD8
:10102000252B21F408950A2609F4A140A6958FEFF7
:10103000811D811D089597F99F6780E870E060E049
:1010400008959FEF80EC089500240A941616170661
:1010500018060906089500240A94121613061406A9
:1010600005060895092E0394000C11F4882352F00C
:10107000BB0F40F4BF2B11F460FF04C06F5F7F4FC4
:101080008F4F9F4F089557FD9058440F551F59F0AB
:101090005F3F71F04795880F97FB991F61F09F3F65
:1010A00079F087950895121613061406551FF2CF8E
:1010B0004695F1DF08C0161617061806991FF1CFDE
:1010C00086957105610508940895E894BB27662705
:1010D0007727CB0197F908950E94F70708F48FEF5F
:1010E00008950E9484080C9432080E94240838F065
:1010F0000E942B0820F0952311F00C941B080C94EF
:10110000210811240C9466080E94430870F3959FEF
:10111000C1F3950F50E0551F629FF001729FBB27EE
:10112000F00DB11D639FAA27F00DB11DAA1F649F8A
:101130006627B00DA11D661F829F2227B00DA11D3D
:10114000621F739FB00DA11D621F839FA00D611DC3
:10115000221F749F3327A00D611D231F849F600DE4
:10116000211D822F762F6A2F11249F5750409AF00D
:10117000F1F088234AF0EE0FFF1FBB1F661F771F99
:10118000881F91505040A9F79E3F510580F00C9464
:101190001B080C9466085F3FE4F3983ED4F38695F1
:1011A00077956795B795F795E7959F5FC1F7FE2B04
:1011B000880F911D9695879597F908950E94F707D6
:1011C000880B990B0895A1E21A2EAA1BBB1BFD01E7
:1011D0000DC0AA1FBB1FEE1FFF1FA217B307E40716
:1011E000F50720F0A21BB30BE40BF50B661F771F6E
:1011F000881F991F1A9469F760957095809590954E
:101200009B01AC01BD01CF010895EE0FFF1F0590BA
:0A121000F491E02D0994F894FFCF4B
:10121A00000000006401C400F100B10122010001D4
:10122A0014010D0A004572726F7220616C206C65A0
:10123A00657220656C2073656E736F722044485422
:10124A0031310054656D70657261747572613A204E
:10125A0000696E66006F766600414C455254413A09
:10126A002054656D706572617475726120616C7469
:10127A0061210056616C6F72206465206761733A60
:10128A002000414C455254413A204761732064651D
:0A129A007465637461646F21000045
:00000001FF
