:100000000C9462000C948A000C948A000C948A0070
:100010000C948A000C948A000C948A000C948A0038
:100020000C948A000C948A000C948A000C948A0028
:100030000C948A000C948A000C948A000C948A0018
:100040000C945E020C948A000C942C020C94060210
:100050000C948A000C948A000C948A000C948A00F8
:100060000C948A000C948A000000000024002700F1
:100070002A000000000023002600290000000000E4
:10008000250028002B0004040404040404040202D4
:100090000202020203030303030301020408102007
:1000A0004080010204081020010204081020000012
:1000B0000008000201000003040700000000000027
:1000C0000000730411241FBECFEFD8E0DEBFCDBF08
:1000D00011E0A0E0B1E0E6EFFBE002C005900D9278
:1000E000A631B107D9F721E0A6E1B1E001C01D9228
:1000F000AC3BB207E1F710E0C2E6D0E004C02197C4
:10010000FE010E94F305C136D107C9F70E94ED0236
:100110000C94F9050C940000E7EBF0E02491E3EA7D
:10012000F0E09491EFE8F0E0E491EE23C9F02223AF
:1001300039F0233001F1A8F4213019F1223029F1EE
:10014000F0E0EE0FFF1FE458FF4FA591B4912FB7D9
:10015000F894EC91811126C090959E239C932FBF1B
:1001600008952730A9F02830C9F0243049F72091AC
:1001700080002F7D03C0209180002F772093800086
:10018000DFCF24B52F7724BDDBCF24B52F7DFBCF68
:100190002091B0002F772093B000D2CF2091B000F3
:1001A0002F7DF9CF9E2BDACFAF92BF92CF92DF9205
:1001B000EF92FF920F931F93CF93DF936C017B011C
:1001C0008B01040F151FEB015E01AE18BF08C017AD
:1001D000D10759F06991D601ED91FC910190F08120
:1001E000E02DC6010995892B79F7C501DF91CF91E3
:1001F0001F910F91FF90EF90DF90CF90BF90AF9045
:100200000895FC01538D448D252F30E0842F90E01C
:10021000821B930B541710F0CF9608950197089501
:10022000FC01918D828D981761F0A28DAE0FBF2FCA
:10023000B11D5D968C91928D9F5F9F73928F90E020
:1002400008958FEF9FEF0895FC01918D828D98178F
:1002500031F0828DE80FF11D858D90E008958FEFCC
:100260009FEF0895FC01918D228D892F90E0805C95
:100270009F4F821B91098F73992708958FE191E019
:100280000E94320121E0892B09F420E0822F089599
:1002900080E090E0892B29F00E943E0181110C94AE
:1002A00000000895FC01A48DA80FB92FB11DA35A19
:1002B000BF4F2C91848D90E001968F739927848F86
:1002C000A689B7892C93A089B1898C9183708064A9
:1002D0008C93938D848D981306C00288F389E02D4A
:1002E00080818F7D80830895EF92FF920F931F93FB
:1002F000CF93DF93EC0181E0888F9B8D8C8D9813D9
:100300001AC0E889F989808185FF15C09FB7F894E4
:10031000EE89FF896083E889F98980818370806430
:1003200080839FBF81E090E0DF91CF911F910F917B
:10033000FF90EF900895F62E0B8D10E00F5F1F4F8A
:100340000F731127E02E8C8D8E110CC00FB607FC99
:10035000FACFE889F989808185FFF5CFCE010E9427
:100360005201F1CFEB8DEC0FFD2FF11DE35AFF4F42
:10037000F0829FB7F8940B8FEA89FB8980818062B5
:10038000CFCFCF93DF93EC01888D8823B9F0AA8972
:10039000BB89E889F9898C9185FD03C0808186FD40
:1003A0000DC00FB607FCF7CF8C9185FFF2CF80818F
:1003B00085FFEDCFCE010E945201E9CFDF91CF91B1
:1003C00008953FB7F89480911B0190911C01A09172
:1003D0001D01B0911E0126B5A89B05C02F3F19F045
:1003E0000196A11DB11D3FBFBA2FA92F982F8827B5
:1003F000BC01CD01620F711D811D911D42E0660F90
:10040000771F881F991F4A95D1F708951F920F9261
:100410000FB60F9211242F933F934F935F936F93D7
:100420007F938F939F93AF93BF93EF93FF938FE14E
:1004300091E00E945201FF91EF91BF91AF919F9186
:100440008F917F916F915F914F913F912F910F907D
:100450000FBE0F901F9018951F920F920FB60F921C
:1004600011242F938F939F93EF93FF93E0912F018C
:10047000F09130018081E0913501F091360182FDEB
:100480001BC09081809138018F5F8F73209139015B
:10049000821741F0E0913801F0E0E15EFE4F958F68
:1004A00080933801FF91EF919F918F912F910F9041
:1004B0000FBE0F901F9018958081F4CF1F920F925E
:1004C0000FB60F9211242F933F938F939F93AF9367
:1004D000BF938091170190911801A0911901B091DB
:1004E0001A013091160123E0230F2D3758F501969C
:1004F000A11DB11D2093160180931701909318013F
:10050000A0931901B0931A0180911B0190911C01D5
:10051000A0911D01B0911E010196A11DB11D8093F6
:100520001B0190931C01A0931D01B0931E01BF916C
:10053000AF919F918F913F912F910F900FBE0F9090
:100540001F90189526E8230F0296A11DB11DD2CF4A
:10055000CF92DF92EF92FF920F931F93E82FF92F24
:1005600005C0015011092109310961F190819623DB
:100570009417B9F305C0015011092109310911F18E
:10058000908196239413F7CFC12CD12CE12CF12C20
:100590000AC08FEFC81AD80AE80AF80A0C151D0518
:1005A0002E053F0579F080818623841791F36C2D09
:1005B0007D2D8E2D9F2D1F910F91FF90EF90DF903D
:1005C000CF90089560E070E080E090E01F910F917F
:1005D000FF90EF90DF90CF900895CF93DF93CDB74A
:1005E000DEB7A1970FB6F894DEBF0FBECDBF7894EB
:1005F00084B5826084BD84B5816084BD85B5826028
:1006000085BD85B5816085BD80916E0081608093D8
:100610006E00109281008091810082608093810041
:100620008091810081608093810080918000816051
:10063000809380008091B10084608093B1008091AC
:10064000B00081608093B00080917A0084608093D4
:100650007A0080917A00826080937A0080917A009B
:10066000816080937A0080917A00806880937A001C
:100670001092C100E3EAF0E02491EFE8F0E0849109
:10068000882399F090E0880F991FFC01E859FF4FEB
:10069000A591B491FC01E458FF4F859194918FB7D7
:1006A000F894EC91E22BEC938FBFE4EAF0E0249114
:1006B000E0E9F0E084918823C9F090E0880F991F69
:1006C000FC01E859FF4FA591B491FC01E458FF4F9C
:1006D000459154913FB7F8949C91822F809598232F
:1006E0009C93FA019081892380833FBFE0912F0181
:1006F000F091300182E08083E0912B01F0912C0198
:100700001082E0912D01F0912E018FEC80831092E8
:100710003701E0913301F091340186E08083E0916C
:100720003101F0913201808180618083E09131015B
:10073000F0913201808188608083E0913101F091F5
:100740003201808180688083E0913101F091320133
:1007500080818F7D808323E0222E312C3AE0832E0E
:10076000912CA12CB12C80E00E948C00C10101973A
:10077000F1F781E00E948C0083E290E00197F1F7AD
:1007800080E00E948C00E4EAF0E06491E0E9F0E0AF
:100790008491E82FF0E0EE0FFF1FEE58FF4F859198
:1007A000949100E412E42FE030E0462F0E94A8026A
:1007B000611571058105910529F06F5F7F4F8F4F9E
:1007C0009F4F9F700E94D80426E933E44BE05DE31D
:1007D0000E943C0520E030E040E05FE30E943C05E1
:1007E0000E94A0046B017C01F7FE67C06DE28FE1FF
:1007F00091E00E94740122273327A9012C193D0999
:100800004E095F0919A2CE0181967C01CA01B90186
:10081000A50194010E94D105605DF70162937F01FB
:10082000211531054105510589F7E114F10461F005
:1008300001900020E9F73197AF014E195F09B70128
:100840008FE191E00E94D40042E050E062E171E06B
:100850008FE191E00E94D4000E94E1012B013C0154
:1008600084E6C82ED12CE12CF12C0E94E101641900
:10087000750986099709683E734081059105A8F3BB
:10088000F1E0CF1AD108E108F10828EE420E23E08A
:10089000521E611C711CC114D104E104F10429F73A
:1008A00080E090E0892B09F45ECF0E943E0188230E
:1008B00009F459CF0E94000056CFAC019B0119A248
:1008C000CE0181967C01CA01B901A50194010E9463
:1008D000D105605DF70162937F0121153105410566
:1008E000510589F7A2CFEFE1F1E01382128288EE81
:1008F00093E0A0E0B0E084839583A683B78384E08F
:1009000091E09183808385EC90E09587848784ECE7
:1009100090E09787868780EC90E0918B808B81ECCC
:1009200090E0938B828B82EC90E0958B848B86ECAD
:1009300090E0978B868B118E128E138E148E0895F5
:100940000E94A7046894B1110C94360508950E9482
:100950001B0588F09F5798F0B92F9927B751B0F031
:10096000E1F0660F771F881F991F1AF0BA95C9F733
:1009700014C0B13091F00E943505B1E008950C9497
:100980003505672F782F8827B85F39F0B93FCCF34A
:10099000869577956795B395D9F73EF490958095B0
:1009A000709561957F4F8F4F9F4F0895E89409C0D0
:1009B00097FB3EF490958095709561957F4F8F4F92
:1009C0009F4F9923A9F0F92F96E9BB279395F695A8
:1009D000879577956795B795F111F8CFFAF4BB0F26
:1009E00011F460FF1BC06F5F7F4F8F4F9F4F16C08A
:1009F000882311F096E911C0772321F09EE8872F14
:100A0000762F05C0662371F096E8862F70E060E0CF
:100A10002AF09A95660F771F881FDAF7880F969548
:100A2000879597F9089557FD9058440F551F59F031
:100A30005F3F71F04795880F97FB991F61F09F3FCB
:100A400079F087950895121613061406551FF2CFF4
:100A50004695F1DF08C0161617061806991FF1CF44
:100A600086957105610508940895E894BB2766276B
:100A70007727CB0197F908950E944F050C94C00584
:100A80000E94B20538F00E94B90520F0952311F0BC
:100A90000C94A9050C94AF0511240C9436050E9402
:100AA000130570F3959FC1F3950F50E0551F629F9A
:100AB000F001729FBB27F00DB11D639FAA27F00DB7
:100AC000B11DAA1F649F6627B00DA11D661F829FDE
:100AD0002227B00DA11D621F739FB00DA11D621FC3
:100AE000839FA00D611D221F749F3327A00D611DE0
:100AF000231F849F600D211D822F762F6A2F1124C2
:100B00009F5750409AF0F1F088234AF0EE0FFF1FF4
:100B1000BB1F661F771F881F91505040A9F79E3F4B
:100B2000510580F00C94A9050C9436055F3FE4F361
:100B3000983ED4F3869577956795B795F795E795A1
:100B40009F5FC1F7FE2B880F911D9695879597F9AA
:100B5000089597F99F6780E870E060E008959FEF3F
:100B600080EC089500240A94161617061806090644
:100B7000089500240A941216130614060506089513
:100B8000092E0394000C11F4882352F0BB0F40F49B
:100B9000BF2B11F460FF04C06F5F7F4F8F4F9F4FDB
:100BA0000895A1E21A2EAA1BBB1BFD010DC0AA1FAE
:100BB000BB1FEE1FFF1FA217B307E407F50720F0C6
:100BC000A21BB30BE40BF50B661F771F881F991F41
:100BD0001A9469F760957095809590959B01AC018A
:100BE000BD01CF010895EE0FFF1F0590F491E02D98
:060BF0000994F894FFCF08
:100BF600000000007401D4000101C101320110019E
:060C060024010D0A0000AC
:00000001FF
