:100000000C9462000C948A000C948A000C948A0070
:100010000C948A000C948A000C948A000C948A0038
:100020000C948A000C948A000C948A000C948A0028
:100030000C948A000C948A000C948A000C948A0018
:100040000C943B050C948A000C9409050C94E30471
:100050000C948A000C948A000C948A000C948A00F8
:100060000C948A000C948A000000000024002700F1
:100070002A0000000000250028002B0000000008D6
:10008000000201000003040700000000000000005F
:1000900000000000230026002900040404040404D6
:1000A0000404020202020202030303030303010227
:1000B00004081020408001020408102001020408F6
:1000C0001020850511241FBECFEFD8E0DEBFCDBFC5
:1000D00011E0A0E0B1E0E2EBF3E102C005900D9287
:1000E000A036B107D9F722E0A0E6B1E001C01D9229
:1000F000A931B207E1F710E0C2E6D0E004C02197D1
:10010000FE010E94D109C136D107C9F70E94D2056C
:100110000C94D7090C940000CF92DF92EF92FF92DB
:10012000CF93DF93B0910D02A0E08111AB2F8091AE
:100130000E0290E0880F991FAC0140575F4FC090AE
:100140001302D0901402E0901502F090160230E0F5
:1001500020E0FA01C591D491E881B90190E080E0F6
:10016000EB23EA130AC02F5F3F4F6C157D058E0508
:100170009F0578F36FEF7FEFCB01DF91CF91FF9079
:10018000EF90DF90CF900895AF92BF92CF92DF9221
:10019000EF92FF920F931F93CF93DF936C017B013C
:1001A0008B01040F151FEB015E01AE18BF08C017CD
:1001B000D10759F06991D601ED91FC910190F08140
:1001C000E02DC6010995892B79F7C501DF91CF9103
:1001D0001F910F91FF90EF90DF90CF90BF90AF9065
:1001E0000895FC01538D448D252F30E0842F90E03D
:1001F000821B930B541710F0CF9608950197089522
:10020000FC01918D828D981761F0A28DAE0FBF2FEA
:10021000B11D5D968C91928D9F5F9F73928F90E040
:1002200008958FEF9FEF0895FC01918D828D9817AF
:1002300031F0828DE80FF11D858D90E008958FEFEC
:100240009FEF0895FC01918D228D892F90E0805CB5
:100250009F4F821B91098F739927089589E691E03A
:100260000E94220121E0892B09F420E0822F0895C9
:1002700080E090E0892B29F00E942E0181110C94DE
:1002800000000895FC01A48DA80FB92FB11DA35A39
:10029000BF4F2C91848D90E001968F739927848FA6
:1002A000A689B7892C93A089B1898C9183708064C9
:1002B0008C93938D848D981306C00288F389E02D6A
:1002C00080818F7D80830895EF92FF920F931F931B
:1002D000CF93DF93EC0181E0888F9B8D8C8D9813F9
:1002E0001AC0E889F989808185FF15C09FB7F89405
:1002F000EE89FF896083E889F98980818370806451
:1003000080839FBF81E090E0DF91CF911F910F919B
:10031000FF90EF900895F62E0B8D10E00F5F1F4FAA
:100320000F731127E02E8C8D8E110CC00FB607FCB9
:10033000FACFE889F989808185FFF5CFCE010E9447
:100340004201F1CFEB8DEC0FFD2FF11DE35AFF4F72
:10035000F0829FB7F8940B8FEA89FB8980818062D5
:10036000CFCFCF93DF93EC01888D8823B9F0AA8992
:10037000BB89E889F9898C9185FD03C0808186FD60
:100380000DC00FB607FCF7CF8C9185FFF2CF8081AF
:1003900085FFEDCFCE010E944201E9CFDF91CF91E1
:1003A0000895CF93DF9390E0FC01E255FF4F249135
:1003B00086569F4FFC0184918823D1F090E0880FEE
:1003C000991FFC01E859FF4FA591B491FC01EE582B
:1003D000FF4FC591D491623071F49FB7F8943C916E
:1003E000822F809583238C93E8812E2B28839FBFB7
:1003F000DF91CF9108958FB7F894EC912E2B2C9329
:100400008FBFF6CF3FB7F894809161019091620160
:10041000A0916301B091640126B5A89B05C02F3F50
:1004200019F00196A11DB11D3FBFBA2FA92F982F1A
:100430008827BC01CD01620F711D811D911D42E015
:10044000660F771F881F991F4A95D1F708958F92DD
:100450009F92AF92BF92CF92DF92EF92FF924B01A9
:100460005C010E9402026B017C010E9402026C1975
:100470007D098E099F09683E734081059105A8F3A7
:1004800021E0821A9108A108B10888EEC80E83E025
:10049000D81EE11CF11C81149104A104B10429F7B8
:1004A000FF90EF90DF90CF90BF90AF909F908F9094
:1004B00008958F929F92AF92BF92EF92FF920F9307
:1004C0001F93CF93DF93CDB7DEB7C054D1400FB6A3
:1004D000F894DEBF0FBECDBF2FB7F89480916501B1
:1004E00090916601A0916701B09168012FBF409182
:1004F0000F025091100260911102709112028C0152
:100500009D01041B150B260B370BB901A801403DBB
:10051000574061057105A0F480911702C05CDE4F61
:100520000FB6F894DEBF0FBECDBFDF91CF911F9104
:100530000F91FF90EF90BF90AF909F908F90089594
:1005400080930F0290931002A0931102B0931202B5
:1005500010920A02109209021092080210920702E9
:100560001092060262E080910B020E94D10161E0CC
:1005700070E080E090E00E94270261E080910B0231
:100580000E94D10180910B0290E0FC01E458FF4FE2
:100590002491FC01E255FF4F3491FC01E656FF4FD8
:1005A000E491EE23D9F0222359F0233009F44BC013
:1005B00008F03EC0213009F44CC0223009F44DC08F
:1005C000F0E0EE0FFF1FEE58FF4FA591B4918FB7EB
:1005D000F894EC9130953E233C938FBF80910C02B0
:1005E0008551823008F046C08BE291E10197F1F726
:1005F00062E080910B020E94D1018091180290E08C
:100600008230910538F0880F991F880F991F059740
:100610000197F1F7F89480E00E948C006F3F7F4FC4
:100620008F4F9F4F71F510921702789480E076CF2C
:100630002730B1F02830D1F0243009F0C1CF8091BB
:1006400080008F7D03C0809180008F778093800031
:10065000B7CF84B58F7784BDB3CF84B58F7DFBCF03
:100660008091B0008F778093B000AACF8091B000C6
:100670008F7DF9CF64E170E080E090E00E94270276
:10068000B7CF81E00E948C006F3F7F4F8F4F9F4F0D
:1006900051F2CE0101967C015E019FEBA91A9EEFFB
:1006A000B90A870180E00E948C00F80160837183A1
:1006B0008283938381E00E948C00F80164837583B8
:1006C00086839783085F1F4FA016B10659F7789469
:1006D00030E020E0F70180809180A280B3804481E7
:1006E000558166817781FFEF8F169F06AF06BF06A3
:1006F00031F04F3F0FEF50076007700719F4109269
:10070000170294CFF90183E0F595E7958A95E1F713
:10071000EA5FFD4F8081880F84169506A606B7060E
:1007200018F180832F5F3F4F18E0E10EF11C283253
:10073000310581F640910A0220910602809107025C
:10074000280F3327331F80910802280F311D809115
:100750000902820F932F911D99274817190679F6E0
:1007600081E080931702DACE8160DBCFFC0101903B
:100770000020E9F73197AF01481B590BBC0189E60E
:1007800091E00C94C4008F929F92AF92BF920F930E
:100790001F93CF93DF93CDB7DEB7A1970FB6F89431
:1007A000DEBF0FBECDBF19A2423008F44AE08E0171
:1007B0000F5D1F4F842E912CB12CA12CA50194010B
:1007C0000E94AF09E62FB901CA01EA30F4F4E05DF6
:1007D000D801EE938D01232B242B252B79F790E064
:1007E00080E0109719F0CD010E94B603A1960FB6D4
:1007F000F894DEBF0FBECDBFDF91CF911F910F9157
:10080000BF90AF909F908F900895E95CE1CF4F9299
:100810005F926F927F928F929F92AF92BF92CF9290
:10082000DF92EF92FF920F931F93CF936B017C01A6
:10083000742EAC019B010E94AA09882399F082E1E1
:1008400091E0CF911F910F91FF90EF90DF90CF90AB
:10085000BF90AF909F908F907F906F905F904F90E0
:100860000C94B60346015701E894B7F82FEF3FEF19
:100870004FE75FE7C501B4010E94AA0981110DC0CD
:100880002FEF3FEF4FE75FE7C501B4010E94E0079C
:1008900018161CF486E191E0D4CF2FEF3FEF4FE71D
:1008A0005FE4C701B6010E94380918161CF48AE1FA
:1008B00091E0C7CF2FEF3FEF4FE75FECC701B601E5
:1008C0000E94E00787FDF3CF20E030E0A901C701D7
:1008D000B6010E94E00710E000E087FF0AC06DE269
:1008E00089E691E00E9464018C01F7FAF094F7F830
:1008F000F094C0E060E070E080E09FE37C1641F09F
:1009000020E030E040E251E40E94E507CF5FF6CFFF
:10091000A70196010E9474072B013C010E94570811
:100920004B015C014AE00E94C3037C01E00EF11E12
:10093000CC23C1F1C501B4010E9486089B01AC0122
:10094000C301B2010E9473074B015C016EE289E6AC
:1009500091E00E946401E80EF91EC15018F120E0F8
:1009600030E040E251E4C501B4010E943D092B0191
:100970003C010E9457084B01B12CA12C4AE0C50153
:10098000B4010E94C303E80EF91EC501B4010E9420
:1009900086089B01AC01C301B2010E9473074B01A1
:1009A0005C01DBCFC701CF911F910F91FF90EF90BA
:1009B000DF90CF90BF90AF909F908F907F906F907F
:1009C0005F904F9008951F920F920FB60F921124CF
:1009D0002F933F934F935F936F937F938F939F9347
:1009E000AF93BF93EF93FF9389E691E00E9442019A
:1009F000FF91EF91BF91AF919F918F917F916F91F7
:100A00005F914F913F912F910F900FBE0F901F90CC
:100A100018951F920F920FB60F9211242F938F9358
:100A20009F93EF93FF93E0917901F0917A01808198
:100A3000E0917F01F091800182FD1BC09081809147
:100A400082018F5F8F7320918301821741F0E091C3
:100A50008201F0E0E759FE4F958F80938201FF916C
:100A6000EF919F918F912F910F900FBE0F901F903C
:100A700018958081F4CF1F920F920FB60F92112418
:100A80002F933F938F939F93AF93BF938091650173
:100A900090916601A0916701B09168013091600169
:100AA00023E0230F2D3758F50196A11DB11D20938A
:100AB00060018093650190936601A0936701B093F4
:100AC00068018091610190916201A0916301B091F0
:100AD00064010196A11DB11D809361019093620193
:100AE000A0936301B0936401BF91AF919F918F91E7
:100AF0003F912F910F900FBE0F901F90189526E8F1
:100B0000230F0296A11DB11DD2CFE9E6F1E01382B9
:100B1000128288EE93E0A0E0B0E084839583A68300
:100B2000B78384E091E09183808385EC90E09587A2
:100B3000848784EC90E09787868780EC90E0918BA7
:100B4000808B81EC90E0938B828B82EC90E0958B94
:100B5000848B86EC90E0978B868B118E128E138E91
:100B6000148EA6E0B2E082E015968C9315978BE088
:100B700016968C931697E0EBF0E0E4911796EC93C1
:100B80001797ECE9F0E0E4911896EC93189740E899
:100B90005EE360E070E01D964D935D936D937C93F2
:100BA00050970895789484B5826084BD84B581603F
:100BB00084BD85B5826085BD85B5816085BD809128
:100BC0006E00816080936E001092810080918100A0
:100BD0008260809381008091810081608093810098
:100BE000809180008160809380008091B10084605A
:100BF0008093B1008091B00081608093B0008091BB
:100C00007A00846080937A0080917A008260809379
:100C10007A0080917A00816080937A0080917A00D6
:100C2000806880937A001092C100E0917901F09180
:100C30007A0182E08083E0917501F0917601108263
:100C4000E0917701F09178018FEC8083109281011F
:100C5000E0917D01F0917E0186E08083E0917B014F
:100C6000F0917C01808180618083E0917B01F09133
:100C70007C01808188608083E0917B01F0917C0120
:100C8000808180688083E0917B01F0917C0180818C
:100C90008F7D808362E080910B020E94D1012FB78B
:100CA000F8948091650190916601A0916701B091DF
:100CB00068012FBF805D9740A109B10980930F02A1
:100CC00090931002A0931102B093120287E38093D5
:100CD0001802C0E0D0E00E945902882349F08091B8
:100CE0000C028B3028F08D3050F085518230C8F1E5
:100CF000812C912C20ECA22E2FE7B22E1EC06091E9
:100D0000070270E090E080E00E9488082DEC3CEC47
:100D10004CEC5DE30E943D096B017C016091060291
:100D200070E090E080E00E9488089B01AC01C70160
:100D3000B6010E9474074B015C010E94590288238E
:100D400009F474C080910C028C3009F482C0D8F48C
:100D50008B3091F1C12CD12C80ECE82E8FE7F82E4E
:100D600055C06091060270910702762767277627A3
:100D700090E080E00E9486082DEC3CEC4CEC5DE3BA
:100D80000E943D09D8CF8551823020F7109108028A
:100D9000612F70E0762F662766277F7780910902A2
:100DA000682B90E080E00E9486082DEC3CEC4CEC37
:100DB0005DE30E943D0969C06091080270E090E027
:100DC00080E00E9486086B017C011091090217FFE8
:100DD0000AC0AC019B0160E070E080E89FEB0E94DC
:100DE00073076B017C011F70612F70E090E080E061
:100DF0000E9488082DEC3CEC4CEC5DE30E943D0920
:100E0000A70196010E9474076B017C01A501940162
:100E1000C501B4010E94AA09811108C0A701960169
:100E2000C701B6010E94AA098823C1F18EE191E0B1
:100E30000E94B6038CE391E00E94B603209709F468
:100E40004ACF0E942E01882309F445CF0E9400005A
:100E500042CF10910802612F70E090E080E00E9484
:100E600086086B017C01609109026F7070E090E070
:100E700080E00E9488082DEC3CEC4CEC5DE30E9485
:100E80003D09A70196010E9474076B017C0117FFC1
:100E9000BDCFF7FAF094F7F8F094B8CF8FE391E074
:100EA0000E94B60342E0C501B4010E94070489E430
:100EB00091E00E94B6038DE491E00E94B60342E007
:100EC000C701B6010E9407048BE591E00E94B603BA
:100ED0008CE391E00E94B60360ED77E080E090E063
:100EE0000E942702ABCF5058BB27AA270E948B072E
:100EF0000C94FE080E94F00838F00E94F70820F0D9
:100F000039F49F3F19F426F40C94ED080EF4E095A3
:100F1000E7FB0C94E708E92F0E940F0958F3BA1772
:100F2000620773078407950720F079F4A6F50C94FF
:100F300031090EF4E0950B2EBA2FA02D0B01B9014B
:100F400090010C01CA01A0011124FF27591B99F03F
:100F5000593F50F4503E68F11A16F040A22F232F4B
:100F6000342F4427585FF3CF469537952795A7959B
:100F7000F0405395C9F77EF41F16BA0B620B730B42
:100F8000840BBAF09150A1F0FF0FBB1F661F771FB3
:100F9000881FC2F70EC0BA0F621F731F841F48F468
:100FA000879577956795B795F7959E3F08F0B0CFF1
:100FB0009395880F08F09927EE0F979587950895D8
:100FC0000E94C30808F481E008950E94F9070C9478
:100FD000FE080E94F70858F00E94F00840F029F43B
:100FE0005F3F29F00C94E70851110C9432090C94DE
:100FF000ED080E940F0968F39923B1F3552391F38B
:10100000951B550BBB27AA2762177307840738F077
:101010009F5F5F4F220F331F441FAA1FA9F335D0D4
:101020000E2E3AF0E0E832D091505040E695001C88
:10103000CAF72BD0FE2F29D0660F771F881FBB1F42
:10104000261737074807AB07B0E809F0BB0B802D20
:10105000BF01FF2793585F4F3AF09E3F510578F04C
:101060000C94E7080C9432095F3FE4F3983ED4F304
:10107000869577956795B795F7959F5FC9F7880F20
:10108000911D9695879597F90895E1E0660F771F72
:10109000881FBB1F621773078407BA0720F0621B03
:1010A000730B840BBA0BEE1F88F7E09508950E942E
:1010B000170988F09F5798F0B92F9927B751B0F0CA
:1010C000E1F0660F771F881F991F1AF0BA95C9F7CC
:1010D00014C0B13091F00E943109B1E008950C9430
:1010E0003109672F782F8827B85F39F0B93FCCF3E3
:1010F000869577956795B395D9F73EF49095809549
:10110000709561957F4F8F4F9F4F0895E89409C068
:1011100097FB3EF490958095709561957F4F8F4F2A
:101120009F4F9923A9F0F92F96E9BB279395F69540
:10113000879577956795B795F111F8CFFAF4BB0FBE
:1011400011F460FF1BC06F5F7F4F8F4F9F4F16C022
:10115000882311F096E911C0772321F09EE8872FAC
:10116000762F05C0662371F096E8862F70E060E068
:101170002AF09A95660F771F881FDAF7880F9695E1
:10118000879597F90895990F0008550FAA0BE0E885
:10119000FEEF16161706E807F907C0F01216130639
:1011A000E407F50798F0621B730B840B950B39F479
:1011B0000A2661F0232B242B252B21F408950A26DF
:1011C00009F4A140A6958FEF811D811D089597F91F
:1011D0009F6780E870E060E008959FEF80EC0895DD
:1011E00000240A9416161706180609060895002406
:1011F0000A9412161306140605060895092E039480
:10120000000C11F4882352F0BB0F40F4BF2B11F4F3
:1012100060FF04C06F5F7F4F8F4F9F4F089557FD52
:101220009058440F551F59F05F3F71F04795880F54
:1012300097FB991F61F09F3F79F0879508951216EB
:1012400013061406551FF2CF4695F1DF08C0161697
:1012500017061806991FF1CF869571056105089448
:101260000895E894BB2766277727CB0197F908955F
:101270000E94C30808F48FEF08950E9450090C944F
:10128000FE080E94F00838F00E94F70820F095232D
:1012900011F00C94E7080C94ED0811240C94320919
:1012A0000E940F0970F3959FC1F3950F50E0551FF1
:1012B000629FF001729FBB27F00DB11D639FAA27AB
:1012C000F00DB11DAA1F649F6627B00DA11D661FFA
:1012D000829F2227B00DA11D621F739FB00DA11D1B
:1012E000621F839FA00D611D221F749F3327A00DD5
:1012F000611D231F849F600D211D822F762F6A2F71
:1013000011249F5750409AF0F1F088234AF0EE0FD5
:10131000FF1FBB1F661F771F881F91505040A9F702
:101320009E3F510580F00C94E7080C9432095F3F12
:10133000E4F3983ED4F3869577956795B795F7953E
:10134000E7959F5FC1F7FE2B880F911D96958795B6
:1013500097F908950E94C308880B990B0895A1E29C
:101360001A2EAA1BBB1BFD010DC0AA1FBB1FEE1F1F
:10137000FF1FA217B307E407F50720F0A21BB30B6A
:10138000E40BF50B661F771F881F991F1A9469F7E6
:1013900060957095809590959B01AC01BD01CF0142
:1013A0000895EE0FFF1F0590F491E02D0994F89435
:0213B000FFCF6D
:1013B200000000006401C400F100B101220100013B
:1013C20014016E616E00696E66006F76660045728A
:1013D200726F7220616C206C65657220656C20737F
:1013E200656E736F72204448543131000D0A004813
:1013F200756D656461643A20002025090054656DAD
:1014020070657261747572613A2000202A4300008F
:00000001FF
