:100000000C945D000C9485000C9485000C94850084
:100010000C9485000C9485000C9485000C9485004C
:100020000C9485000C9485000C9485000C9485003C
:100030000C9485000C9485000C9485000C9485002C
:100040000C94DE020C9485000C94AC020C94860295
:100050000C9485000C9485000C9485000C9485000C
:100060000C9485000C9485000000000024002700FB
:100070002A0000000000250028002B0004040404CE
:100080000404040402020202020203030303030342
:10009000010204081020408001020408102001021F
:1000A00004081020000000080002010000030407FB
:1000B0000000000000000000920411241FBECFEFDA
:1000C000D8E0DEBFCDBF22E0A2E9B1E001C01D92C1
:1000D000AC33B207E1F711E0A0E0B1E0EAE0FEE006
:1000E00002C005900D92A239B107D9F710E0CDE515
:1000F000D0E004C02197FE010E940205CC35D10753
:10010000C9F70E9428030C9403070C940000E1EB4C
:10011000F0E02491EDE9F0E09491E9E8F0E0E49179
:10012000EE23C9F0222339F0233001F1A8F4213065
:1001300019F1223029F1F0E0EE0FFF1FEE58FF4FCA
:10014000A591B4912FB7F894EC91811126C09095A8
:100150009E239C932FBF08952730A9F02830C9F023
:10016000243049F7209180002F7D03C0209180002A
:100170002F7720938000DFCF24B52F7724BDDBCFEE
:1001800024B52F7DFBCF2091B0002F772093B000B6
:10019000D2CF2091B0002F7DF9CF9E2BDACFAF9236
:1001A000BF92CF92DF92EF92FF920F931F93CF9364
:1001B000DF936C017B018B01040F151FEB015E01C6
:1001C000AE18BF08C017D10759F06991D601ED915B
:1001D000FC910190F081E02DC6010995892B79F7FA
:1001E000C501DF91CF911F910F91FF90EF90DF90AC
:1001F000CF90BF90AF900895FC01538D448D252F73
:1002000030E0842F90E0821B930B541710F0CF96B0
:10021000089501970895FC01918D828D981761F0E2
:10022000A28DAE0FBF2FB11D5D968C91928D9F5FF9
:100230009F73928F90E008958FEF9FEF08952FB7EF
:10024000F8948091970190919801A0919901B091B3
:100250009A012FBF8093A3019093A401A093A501BD
:10026000B093A6018BE991E00E940B0197FF26C095
:100270002FB7F8948091970190919801A0919901DE
:10028000B0919A012FBF4091A3015091A4016091B8
:10029000A5017091A601841B950BA60BB70B40918D
:1002A0009F015091A0016091A1017091A20184175A
:1002B0009507A607B707B0F28FEF9FEF0895FC01EF
:1002C000918D828D981731F0828DE80FF11D858D0B
:1002D00090E008958FEF9FEF0895FC01918D228D9E
:1002E000892F90E0805C9F4F821B91098F73992723
:1002F00008958BE991E00E946D0121E0892B09F4BA
:1003000020E0822F089580E090E0892B29F00E9460
:10031000790181110C9400000895FC01A48DA80FAF
:10032000B92FB11DA35ABF4F2C91848D90E0019637
:100330008F739927848FA689B7892C93A089B18957
:100340008C91837080648C93938D848D981306C0F8
:100350000288F389E02D80818F7D80830895EF925C
:10036000FF920F931F93CF93DF93EC0181E0888F6F
:100370009B8D8C8D98131AC0E889F989808185FF3F
:1003800015C09FB7F894EE89FF896083E889F989E1
:1003900080818370806480839FBF81E090E0DF91E3
:1003A000CF911F910F91FF90EF900895F62E0B8D36
:1003B00010E00F5F1F4F0F731127E02E8C8D8E11F1
:1003C0000CC00FB607FCFACFE889F989808185FF58
:1003D000F5CFCE010E948D01F1CFEB8DEC0FFD2FFB
:1003E000F11DE35AFF4FF0829FB7F8940B8FEA8913
:1003F000FB8980818062CFCFCF93DF93EC01888D22
:100400008823B9F0AA89BB89E889F9898C9185FD8F
:1004100003C0808186FD0DC00FB607FCF7CF8C911D
:1004200085FFF2CF808185FFEDCFCE010E948D0147
:10043000E9CFDF91CF9108953FB7F8948091930170
:1004400090919401A0919501B091960126B5A89B39
:1004500005C02F3F19F00196A11DB11D3FBFBA2F56
:10046000A92F982F8827BC01CD01620F711D811D16
:10047000911D42E0660F771F881F991F4A95D1F79B
:100480000895CF93DF93FC0101900020E9F73197A5
:10049000AF01481B590BBC018BE991E00E94CF00D2
:1004A000EC0142E050E068E171E08BE991E00E94EC
:1004B000CF008C0F9D1FDF91CF9108950F931F9355
:1004C000CF93DF93EC0188819981009759F02A81BD
:1004D0003B812617370730F081E0DF91CF911F91E4
:1004E0000F9108958B016F5F7F4F0E942D0600973B
:1004F00059F0998388831B830A832C813D81232BA8
:1005000059F7FC011082E8CF80E0E7CF1F920F92ED
:100510000FB60F9211242F933F934F935F936F93D6
:100520007F938F939F93AF93BF93EF93FF938BE949
:1005300091E00E948D01FF91EF91BF91AF919F914A
:100540008F917F916F915F914F913F912F910F907C
:100550000FBE0F901F9018951F920F920FB60F921B
:1005600011242F938F939F93EF93FF93E091AB010F
:10057000F091AC018081E091B101F091B20182FD76
:100580001BC090818091B4018F5F8F732091B50162
:10059000821741F0E091B401F0E0E556FE4F958FEF
:1005A0008093B401FF91EF919F918F912F910F90C4
:1005B0000FBE0F901F9018958081F4CF1F920F925D
:1005C0000FB60F9211242F933F938F939F93AF9366
:1005D000BF938091970190919801A0919901B0915A
:1005E0009A013091920123E0230F2D3758F501969F
:1005F000A11DB11D209392018093970190939801C2
:10060000A0939901B0939A018091930190919401E4
:10061000A0919501B09196010196A11DB11D809305
:10062000930190939401A0939501B0939601BF918B
:10063000AF919F918F913F912F910F900FBE0F908F
:100640001F90189526E8230F0296A11DB11DD2CF49
:10065000CF93DF93CDB7DEB728970FB6F894DEBF00
:100660000FBECDBF789484B5826084BD84B58160AF
:1006700084BD85B5826085BD85B5816085BD80916D
:100680006E00816080936E001092810080918100E5
:1006900082608093810080918100816080938100DD
:1006A000809180008160809380008091B10084609F
:1006B0008093B1008091B00081608093B000809100
:1006C0007A00846080937A0080917A0082608093BF
:1006D0007A0080917A00816080937A0080917A001C
:1006E000806880937A001092C100EDE9F0E02491D7
:1006F000E9E8F0E08491882399F090E0880F991F51
:10070000FC01E859FF4FA591B491FC01EE58FF4F51
:10071000859194918FB7F894EC91E22BEC938FBF75
:10072000E091AB01F091AC0182E08083E091A70100
:10073000F091A8011082E091A901F091AA018FEC3B
:1007400080831092B301E091AF01F091B00186E097
:100750008083E091AD01F091AE0180818061808362
:10076000E091AD01F091AE01808188608083E091DD
:10077000AD01F091AE01808180688083E091AD0190
:10078000F091AE0180818F7D80838BE191E00E94AA
:10079000410280E0A82E80E0B82E8BE991E00E9413
:1007A0006D01181619060CF06AC01A8219821C8293
:1007B0001B821E821D8270E060E0CE0101960E94C5
:1007C0005E0229813A8181112BC02115310519F072
:1007D000C9010E94A4051A8219821E821D821C82F0
:1007E0001B820E941F010D811E8197FD21C08F83F6
:1007F00018860F5F1F4FB801CE0101960E945E025E
:10080000882379F329813A818D819E81BE01695FB8
:100810007F4F820F931F0E94FC061E830D83E1CF42
:100820001E821D826AE171E0C9010E94FC06D9CFD7
:10083000C980DA80C114D10421F0760101151105B7
:1008400059F58D819E81892B09F469C009811A812E
:100850006EE571E0C8010E94F306892B09F052C0D1
:1008600081E00E94870080E691E00E9441020E94A0
:100870001C0289819A81009711F00E94A405A1149D
:10088000B10409F48ACF0E947901882309F485CF45
:100890000E94000082CF740147018FEF881A980AE6
:1008A000F7018081082E000C990B0E94BF04892B50
:1008B00091F7015011090C0D1D1DF8018081082EC2
:1008C000000C990B0E94BF04892B31F00E151F05F7
:1008D00018F001501109F1CFA8014F5F5F4F4E1979
:1008E0005F095E834D83CE14DF0420F4B701C60197
:1008F0000E94EA06E981FA818D819E81E80FF91F45
:1009000010829FCF6EE671E0C8010E94F306892B2A
:1009100031F480E00E94870080E791E0A6CF8CE769
:1009200091E0A3CFEBE9F1E01382128288EE93E02D
:10093000A0E0B0E084839583A683B7838AE091E04A
:100940009183808385EC90E09587848784EC90E0A8
:100950009787868780EC90E0918B808B81EC90E08C
:10096000938B828B82EC90E0958B848B86EC90E06D
:10097000978B868B118E128E138E148E0895911183
:100980000C94C804803219F089508550C8F7089536
:100990009927882708952F923F924F925F926F92E6
:1009A0007F928F929F92AF92BF92CF92DF92EF92FF
:1009B000FF920F931F93CF93DF93CDB7DEB7CA1B80
:1009C000DB0B0FB6F894DEBF0FBECDBF09942A88AB
:1009D000398848885F846E847D848C849B84AA8453
:1009E000B984C884DF80EE80FD800C811B81AA81E0
:1009F000B981CE0FD11D0FB6F894DEBF0FBECDBFAB
:100A0000ED010895EE0FFF1F0590F491E02D09947C
:100A10000F931F93CF93DF938230910510F482E000
:100A200090E0E0913A02F0913B0230E020E0B0E04B
:100A3000A0E0309799F42115310509F44AC0281B2C
:100A4000390B24303105D8F58A819B8161157105F8
:100A500089F1FB0193838283FE0111C040815181A2
:100A60000281138148175907E0F04817590799F494
:100A7000109761F012960C93129713961C9332966E
:100A8000CF01DF91CF911F910F91089500933A020A
:100A900010933B02F4CF2115310551F04217530753
:100AA00038F0A901DB019A01BD01DF01F801C1CFD6
:100AB000EF01F9CF90933B0280933A02CDCFFE0134
:100AC000E20FF31F819391932250310939832883D8
:100AD000D7CF2091380230913902232B41F4209155
:100AE00002013091030130933902209338022091A2
:100AF0000001309101012115310541F42DB73EB7B8
:100B00004091040150910501241B350BE0913802FE
:100B1000F0913902E217F307A0F42E1B3F0B2817C0
:100B2000390778F0AC014E5F5F4F2417350748F066
:100B30004E0F5F1F50933902409338028193919377
:100B40009FCFF0E0E0E09CCFCF93DF930097E9F0F8
:100B5000FC01329713821282A0913A02B0913B02BB
:100B6000ED0130E020E01097A1F420813181820F67
:100B7000931F20913802309139022817390709F064
:100B800061C0F0933902E0933802DF91CF9108956C
:100B9000EA01CE17DF07E8F54A815B819E01411526
:100BA0005105B1F7E901FB83EA8349915991C40FDB
:100BB000D51FEC17FD0761F4808191810296840FA7
:100BC000951FE90199838883828193819B838A831E
:100BD000F0E0E0E012968D919C9113970097B9F5A3
:100BE0002D913C911197CD010296820F931F209178
:100BF0003802309139022817390739F6309751F504
:100C000010923B0210923A02B0933902A09338023C
:100C1000BCCFD383C28340815181840F951FC817F5
:100C2000D90761F44E5F5F4F88819981480F591F42
:100C3000518340838A819B8193838283211531056F
:100C400009F0B0CFF0933B02E0933A029ECFFD0152
:100C5000DC01C0CF13821282D7CFB0E0A0E0E3E383
:100C6000F6E00C94CD048C01009751F4CB010E9466
:100C700008058C01C801CDB7DEB7E0E10C94E904AA
:100C8000FC01E60FF71F9C0122503109E217F30720
:100C900008F49DC0D901CD91DC911197C617D707F3
:100CA00098F0C530D10530F3CE0104978617970729
:100CB00008F3C61BD70B2297C193D1936D937C93F6
:100CC000CF010E94A405D6CF5B01AC1ABD0A4C012E
:100CD0008C0E9D1EA0913A02B0913B02512C412CEA
:100CE000F12CE12C109731F5809138029091390266
:100CF0008815990509F05CC04616570608F058C0DB
:100D00008091000190910101009741F48DB79EB749
:100D10004091040150910501841B950BE817F907D8
:100D200008F055C0F0933902E0933802F90171835D
:100D30006083A0CF8D919C91119712966C90129721
:100D400013967C901397A815B90559F56C0142E0EC
:100D5000C40ED11CCA14DB0420F1AC014A195B0992
:100D6000DA011296159780F0628273825183408374
:100D7000D9016D937C93E114F10471F0D7011396BE
:100D8000FC93EE93129776CF22968C0F9D1FF9015C
:100D900091838083F301EFCFF0933B02E0933A021B
:100DA00069CF4816590608F42C017D01D3019ACF6A
:100DB000CB010E9408057C01009749F0AE01B80103
:100DC0000E94EA06C8010E94A405870153CF10E0E3
:100DD00000E050CFFB01DC0102C001900D924150B8
:100DE0005040D8F70895FB01DC018D9101908019E6
:100DF0000110D9F3990B0895FB01DC0101900D92CC
:0A0E00000020E1F70895F894FFCFF9
:100E0A0000003C02800000000000AF01CF00FC009F
:100E1A00FC016D010B015F010D0A004172647569E5
:100E2A006E6F206C6973746F2E20456E766961202F
:100E3A00273127207061726120656E63656E646573
:100E4A007220656C204C4544207920273027207079
:100E5A00617261206170616761726C6F2E0031008E
:100E6A004C454420656E63656E6469646F003000AA
:100E7A004C4544206170616761646F00436F6D6126
:100E8A006E646F206E6F207265636F6E6F63696444
:020E9A006F00E7
:00000001FF
