:100000000C9435000C945D000C945D000C945D0024
:100010000C945D000C945D000C945D000C945D00EC
:100020000C945D000C945D000C945D000C945D00DC
:100030000C945D000C945D000C945D000C945D00CC
:100040000C94D4010C945D000C9444020C941E0298
:100050000C945D000C945D000C945D000C945D00AC
:100060000C945D000C945D00740311241FBECFEF4F
:10007000D8E0DEBFCDBF21E0ACE2B1E001C01D920F
:10008000A63DB207E1F711E0A0E0B1E0E4EAFBE051
:1000900002C005900D92AC32B107D9F710E0C5E36C
:1000A000D0E004C02197FE010E94D803C433D107D9
:1000B000C9F70E9476020C94D0050C940000AF9210
:1000C000BF92CF92DF92EF92FF920F931F93CF9345
:1000D000DF936C017B018B01040F151FEB015E01A7
:1000E000AE18BF08C017D10759F06991D601ED913C
:1000F000FC910190F081E02DC6010995892B79F7DB
:10010000C501DF91CF911F910F91FF90EF90DF908C
:10011000CF90BF90AF900895FC01538D448D252F53
:1001200030E0842F90E0821B930B541710F0CF9691
:10013000089501970895FC01918D828D981761F0C3
:10014000A28DAE0FBF2FB11D5D968C91928D9F5FDA
:100150009F73928F90E008958FEF9FEF08952FB7D0
:10016000F8948091310190913201A0913301B091C6
:1001700034012FBF80933D0190933E01A0933F0136
:10018000B093400185E391E00E949B0097FF26C059
:100190002FB7F8948091310190913201A0913301F1
:1001A000B09134012FBF40913D0150913E016091CB
:1001B0003F0170914001841B950BA60BB70B40913A
:1001C000390150913A0160913B0170913C018417D3
:1001D0009507A607B707B0F28FEF9FEF0895FC01D0
:1001E000918D828D981731F0828DE80FF11D858DEC
:1001F00090E008958FEF9FEF0895FC01918D228D7F
:10020000892F90E0805C9F4F821B91098F73992703
:10021000089585E391E00E94FD0021E0892B09F417
:1002200020E0822F089580E090E0892B29F00E9441
:10023000090181110C9400000895FC01A48DA80F00
:10024000B92FB11DA35ABF4F2C91848D90E0019618
:100250008F739927848FA689B7892C93A089B18938
:100260008C91837080648C93938D848D981306C0D9
:100270000288F389E02D80818F7D80830895EF923D
:10028000FF920F931F93CF93DF93EC0181E0888F50
:100290009B8D8C8D98131AC0E889F989808185FF20
:1002A00015C09FB7F894EE89FF896083E889F989C2
:1002B00080818370806480839FBF81E090E0DF91C4
:1002C000CF911F910F91FF90EF900895F62E0B8D17
:1002D00010E00F5F1F4F0F731127E02E8C8D8E11D2
:1002E0000CC00FB607FCFACFE889F989808185FF39
:1002F000F5CFCE010E941D01F1CFEB8DEC0FFD2F4C
:10030000F11DE35AFF4FF0829FB7F8940B8FEA89F3
:10031000FB8980818062CFCFCF93DF93EC01888D02
:100320008823B9F0AA89BB89E889F9898C9185FD70
:1003300003C0808186FD0DC00FB607FCF7CF8C91FE
:1003400085FFF2CF808185FFEDCFCE010E941D0198
:10035000E9CFDF91CF9108950F931F93CF93DF9350
:10036000EC0188819981009759F02A813B812617F9
:10037000370730F081E0DF91CF911F910F91089501
:100380008B016F5F7F4F0E940305009759F099839F
:1003900088831B830A832C813D81232B59F7FC0121
:1003A0001082E8CF80E0E7CF1F920F920FB60F9236
:1003B00011242F933F938F939F93AF93BF9380917B
:1003C000310190913201A0913301B091340130910B
:1003D000300123E0230F2D3758F50196A11DB11DE3
:1003E000209330018093310190933201A093330127
:1003F000B093340180912C0190912D01A0912E0198
:10040000B0912F010196A11DB11D80932C019093F5
:100410002D01A0932E01B0932F01BF91AF919F9119
:100420008F913F912F910F900FBE0F901F901895B5
:1004300026E8230F0296A11DB11DD2CF1F920F9265
:100440000FB60F9211242F933F934F935F936F93A7
:100450007F938F939F93AF93BF93EF93FF9385E326
:1004600091E00E941D01FF91EF91BF91AF919F918B
:100470008F917F916F915F914F913F912F910F904D
:100480000FBE0F901F9018951F920F920FB60F92EC
:1004900011242F938F939F93EF93FF93E091450146
:1004A000F09146018081E0914B01F0914C0182FD79
:1004B0001BC0908180914E018F5F8F7320914F01FF
:1004C000821741F0E0914E01F0E0EB5CFE4F958F1A
:1004D00080934E01FF91EF919F918F912F910F90FB
:1004E0000FBE0F901F9018958081F4CFCF93DF93AC
:1004F000CDB7DEB728970FB6F894DEBF0FBECDBFDD
:10050000789484B5826084BD84B5816084BD85B5EE
:10051000826085BD85B5816085BD80916E008160FA
:1005200080936E00109281008091810082608093A0
:1005300081008091810081608093810080918000A2
:100540008160809380008091B10084608093B100CD
:100550008091B00081608093B00080917A008460C7
:1005600080937A0080917A00826080937A008091F3
:100570007A00816080937A0080917A00806880930D
:100580007A001092C100E0914501F091460182E0AD
:100590008083E0914101F09142011082E09143019A
:1005A000F09144018FEC808310924D01E09149015C
:1005B000F0914A0186E08083E0914701F091480183
:1005C000808180618083E0914701F09148018081C2
:1005D00088608083E0914701F091480180818068C4
:1005E0008083E0914701F091480180818F7D808375
:1005F00080E0E82E80E0F82E85E391E00E94FD0087
:10060000181619060CF064C01A8219821C821B820B
:100610001E821D8270E060E0CE0101960E94AC0156
:1006200029813A8181112EC02115310519F0C901A6
:100630000E947A041A8219821E821D821C821B82E9
:100640000E94AF0097FD26C08A30910519F18F8373
:1006500018860D811E810F5F1F4FB801CE010196D4
:100660000E94AC01882361F329813A818D819E81AA
:10067000BE01695F7F4F820F931F0E94C9051E83D1
:100680000D83DECF1E821D826AE271E0C9010E94E5
:10069000C905D6CF4FE050E068E171E085E391E015
:1006A0000E945F004D815E8169817A8185E391E0DE
:1006B0000E945F0042E050E068E271E085E391E073
:1006C0000E945F0089819A81009711F00E947A044C
:1006D000E114F10409F490CF0E940901882309F480
:1006E0008BCF0E94000088CFE5E3F1E013821282F5
:1006F00088EE93E0A0E0B0E084839583A683B7837F
:100700008AE091E09183808385EC90E095878487EF
:1007100084EC90E09787868780EC90E0918B808BCB
:1007200081EC90E0938B828B82EC90E0958B848BB4
:1007300086EC90E0978B868B118E128E138E148E22
:1007400008952F923F924F925F926F927F928F9275
:100750009F92AF92BF92CF92DF92EF92FF920F9350
:100760001F93CF93DF93CDB7DEB7CA1BDB0B0FB65A
:10077000F894DEBF0FBECDBF09942A883988488817
:100780005F846E847D848C849B84AA84B984C884AD
:10079000DF80EE80FD800C811B81AA81B981CE0FA4
:1007A000D11D0FB6F894DEBF0FBECDBFED01089589
:1007B000EE0FFF1F0590F491E02D09940F931F9306
:1007C000CF93DF938230910510F482E090E0E091C6
:1007D000D401F091D50130E020E0B0E0A0E0309706
:1007E00099F42115310509F44AC0281B390B24302E
:1007F0003105D8F58A819B816115710589F1FB016D
:1008000093838283FE0111C0408151810281138153
:1008100048175907E0F04817590799F4109761F005
:1008200012960C93129713961C933296CF01DF9178
:10083000CF911F910F9108950093D4011093D5018A
:10084000F4CF2115310551F04217530738F0A901B3
:10085000DB019A01BD01DF01F801C1CFEF01F9CF42
:100860009093D5018093D401CDCFFE01E20FF31F09
:10087000819391932250310939832883D7CF2091D6
:10088000D2013091D301232B41F420910201309108
:1008900003013093D3012093D201209100013091C4
:1008A00001012115310541F42DB73EB740910401F6
:1008B00050910501241B350BE091D201F091D30139
:1008C000E217F307A0F42E1B3F0B2817390778F027
:1008D000AC014E5F5F4F2417350748F04E0F5F1F86
:1008E0005093D3014093D201819391939FCFF0E035
:1008F000E0E09CCFCF93DF930097E9F0FC013297C3
:1009000013821282A091D401B091D501ED0130E0A3
:1009100020E01097A1F420813181820F931F209154
:10092000D2013091D3012817390709F061C0F09343
:10093000D301E093D201DF91CF910895EA01CE1760
:10094000DF07E8F54A815B819E0141155105B1F74A
:10095000E901FB83EA8349915991C40FD51FEC1734
:10096000FD0761F4808191810296840F951FE90152
:1009700099838883828193819B838A83F0E0E0E07E
:1009800012968D919C9113970097B9F52D913C91FA
:100990001197CD010296820F931F2091D2013091C1
:1009A000D3012817390739F6309751F51092D50140
:1009B0001092D401B093D301A093D201BCCFD383C2
:1009C000C28340815181840F951FC817D90761F4F4
:1009D0004E5F5F4F88819981480F591F5183408333
:1009E0008A819B81938382832115310509F0B0CFE1
:1009F000F093D501E093D4019ECFFD01DC01C0CF7F
:100A000013821282D7CFB0E0A0E0E9E0F5E00C94C9
:100A1000A3038C01009751F4CB010E94DE038C01EB
:100A2000C801CDB7DEB7E0E10C94BF03FC01E60FCF
:100A3000F71F9C0122503109E217F30708F49DC00B
:100A4000D901CD91DC911197C617D70798F0C53021
:100A5000D10530F3CE0104978617970708F3C61B1C
:100A6000D70B2297C193D1936D937C93CF010E94B2
:100A70007A04D6CF5B01AC1ABD0A4C018C0E9D1EC8
:100A8000A091D401B091D501512C412CF12CE12C35
:100A9000109731F58091D2019091D3018815990575
:100AA00009F05CC04616570608F058C08091000156
:100AB00090910101009741F48DB79EB740910401D8
:100AC00050910501841B950BE817F90708F055C0F4
:100AD000F093D301E093D201F90171836083A0CF39
:100AE0008D919C91119712966C90129713967C9011
:100AF0001397A815B90559F56C0142E0C40ED11C35
:100B0000CA14DB0420F1AC014A195B09DA01129620
:100B1000159780F06282738251834083D9016D936F
:100B20007C93E114F10471F0D7011396FC93EE93DA
:100B3000129776CF22968C0F9D1FF90191838083A7
:100B4000F301EFCFF093D501E093D40169CF4816BC
:100B5000590608F42C017D01D3019ACFCB010E94E4
:100B6000DE037C01009749F0AE01B8010E94C00588
:100B7000C8010E947A04870153CF10E000E050CFF3
:100B8000FB01DC0102C001900D9241505040D8F7AA
:100B90000895FB01DC0101900D920020E1F708951A
:040BA000F894FFCFF7
:100BA4000000D6018000000000003F015F008C00BF
:100BB4008C01FD009B00EF004461746F207265633B
:0C0BC400696269646F3A20000D0A0000AD
:00000001FF
