:100000000C945D000C9485000C9485000C94850084
:100010000C9485000C9485000C9485000C9485004C
:100020000C9485000C9485000C9485000C94CF02F0
:100030000C9485000C9485000C9485000C9485002C
:100040000C942D020C9485000C949D020C94770264
:100050000C9485000C9485000C9485000C9485000C
:100060000C9485000C94850000000008000201003B
:100070000003040700000000000000000000000072
:10008000250028002B0000000000240027002A0083
:10009000040404040404040402020202020203032E
:1000A0000303030301020408102040800102040836
:1000B00010200102040810208B0311241FBECFEF73
:1000C000D8E0DEBFCDBF11E0A0E0B1E0E2E0FDE0AE
:1000D00002C005900D92A235B107D9F722E0A2E542
:1000E000B1E001C01D92A132B207E1F710E0CDE509
:1000F000D0E004C02197FE010E947906CC35D107DB
:10010000C9F70E94E8030C947F060C940000AF929C
:10011000BF92CF92DF92EF92FF920F931F93CF93F4
:10012000DF936C017B018B01040F151FEB015E0156
:10013000AE18BF08C017D10759F06991D601ED91EB
:10014000FC910190F081E02DC6010995892B79F78A
:10015000C501DF91CF911F910F91FF90EF90DF903C
:10016000CF90BF90AF900895FC01538D448D252F03
:1001700030E0842F90E0821B930B541710F0CF9641
:10018000089501970895FC01918D828D981761F073
:10019000A28DAE0FBF2FB11D5D968C91928D9F5F8A
:1001A0009F73928F90E008958FEF9FEF0895FC0169
:1001B000918D828D981731F0828DE80FF11D858D1C
:1001C00090E008958FEF9FEF08952FB7F8948091F6
:1001D000580190915901A0915A01B0915B012FBF34
:1001E0008093640190936501A0936601B0936701C9
:1001F0008CE591E00E94D70097FF26C02FB7F894B6
:100200008091580190915901A0915A01B0915B01E0
:100210002FBF40916401509165016091660170911A
:100220006701841B950BA60BB70B409160015091A1
:100230006101609162017091630184179507A607BF
:10024000B707B0F28FEF9FEF0895FC01918D228DDB
:10025000892F90E0805C9F4F821B91098F739927B3
:1002600008958CE591E00E94250121E0892B09F495
:1002700020E0822F089580E090E0892B29F00E94F1
:10028000310181110C9400000895FC01A48DA80F88
:10029000B92FB11DA35ABF4F2C91848D90E00196C8
:1002A0008F739927848FA689B7892C93A089B189E8
:1002B0008C91837080648C93938D848D981306C089
:1002C0000288F389E02D80818F7D80830895EF92ED
:1002D000FF920F931F93CF93DF93EC0181E0888F00
:1002E0009B8D8C8D98131AC0E889F989808185FFD0
:1002F00015C09FB7F894EE89FF896083E889F98972
:1003000080818370806480839FBF81E090E0DF9173
:10031000CF911F910F91FF90EF900895F62E0B8DC6
:1003200010E00F5F1F4F0F731127E02E8C8D8E1181
:100330000CC00FB607FCFACFE889F989808185FFE8
:10034000F5CFCE010E944501F1CFEB8DEC0FFD2FD3
:10035000F11DE35AFF4FF0829FB7F8940B8FEA89A3
:10036000FB8980818062CFCFCF93DF93EC01888DB2
:100370008823B9F0AA89BB89E889F9898C9185FD20
:1003800003C0808186FD0DC00FB607FCF7CF8C91AE
:1003900085FFF2CF808185FFEDCFCE010E94450120
:1003A000E9CFDF91CF91089590E0FC01E859FF4F2C
:1003B0002491FC01EC55FF4F3491FC01E057FF4FB5
:1003C000E491EE23C9F0222339F0233001F1A8F49F
:1003D000213019F1223029F1F0E0EE0FFF1FE4582F
:1003E000FF4FA591B4918FB7F894EC91611126C09D
:1003F00030953E233C938FBF08952730A9F02830D5
:10040000C9F0243049F7809180008F7D03C080912E
:1004100080008F7780938000DFCF84B58F7784BD95
:10042000DBCF84B58F7DFBCF8091B0008F77809339
:10043000B000D2CF8091B0008F7DF9CF3E2BDACFC4
:10044000FC0101900020E9F73197AF01481B590BDF
:10045000BC018CE591E00C9487001F920F920FB6BF
:100460000F9211242F933F938F939F93AF93BF933A
:100470008091580190915901A0915A01B0915B016E
:100480003091570123E0230F2D3758F50196A11D18
:10049000B11D209357018093580190935901A09367
:1004A0005A01B0935B018091530190915401A09146
:1004B0005501B09156010196A11DB11D80935301C4
:1004C00090935401A0935501B0935601BF91AF9101
:1004D0009F918F913F912F910F900FBE0F901F9082
:1004E000189526E8230F0296A11DB11DD2CF1F92A9
:1004F0000F920FB60F9211242F933F934F935F9358
:100500006F937F938F939F93AF93BF93EF93FF93DB
:100510008CE591E00E944501FF91EF91BF91AF9171
:100520009F918F917F916F915F914F913F912F910B
:100530000F900FBE0F901F9018951F920F920FB63D
:100540000F9211242F938F939F93EF93FF93E0913A
:100550006C01F0916D018081E0917201F091730165
:1005600082FD1BC09081809175018F5F8F732091F8
:100570007601821741F0E0917501F0E0E45AFE4FF8
:10058000958F80937501FF91EF919F918F912F919E
:100590000F900FBE0F901F9018958081F4CF1F927F
:1005A0000F920FB60F9211242F933F934F935F93A7
:1005B0006F937F938F939F93AF93BF93CF93DF936B
:1005C000EF93FF9380915201C0911D02D0E087FF0D
:1005D00024C01092850010928400809152018F5F98
:1005E0008093520180915201082E000C990B8C17B8
:1005F0009D0724F4809152018C30C4F180918400D5
:1006000090918500049680349C4908F47AC08091CA
:10061000840090918500049676C080915201082E46
:10062000000C990B8C179D07C4F6E09152018E2F98
:10063000EE0F990BFC01EE0FFF1FE80FF91FE750BB
:10064000FE4F808186FFC9CFE09152018E2FEE0FC1
:10065000990BFC01EE0FFF1FE80FF91FE750FE4F4B
:10066000808160E08F730E94D401B7CF2091840015
:1006700030918500E09152018E2FEE0F990BFC0115
:10068000EE0FFF1FE80FF91FE750FE4F81819281A7
:10069000820F931F9093890080938800E09152010C
:1006A0008E2FEE0F990BFC01EE0FFF1FE80FF91FC5
:1006B000E750FE4F808186FF11C0E09152018E2FDE
:1006C000EE0F990BFC01EE0FFF1FE80FF91FE7502B
:1006D000FE4F808161E08F730E94D401FF91EF9102
:1006E000DF91CF91BF91AF919F918F917F916F914A
:1006F0005F914F913F912F910F900FBE0F901F90E0
:10070000189580E49CE990938900809388008FEF8E
:1007100080935201E3CF10925F0110925E0188EE48
:1007200093E0A0E0B0E08093600190936101A0931A
:100730006201B093630184E091E090935D01809346
:100740005C0185EC90E0909369018093680184ECF2
:1007500090E090936B0180936A0180EC90E090931D
:100760006D0180936C0181EC90E090936F01809318
:100770006E0182EC90E0909371018093700186ECA1
:1007800090E0909373018093720110927501109222
:100790007601109277011092780180911D028C30C1
:1007A00098F491E0980F90931D0280931E0290E0C0
:1007B000FC01EE0FFF1FE80FF91FE750FE4F88EB1B
:1007C0009BE09283818308958FEF80931E020895AA
:1007D000CF93DF93CDB7DEB7A1970FB6F894DEBF06
:1007E0000FBECDBF789484B5826084BD84B581602E
:1007F00084BD85B5826085BD85B5816085BD8091EC
:100800006E00816080936E00109281008091810063
:10081000826080938100809181008160809381005B
:10082000809180008160809380008091B10084601D
:100830008093B1008091B00081608093B00080917E
:100840007A00846080937A0080917A00826080933D
:100850007A0080917A00816080937A0080917A009A
:10086000806880937A001092C100E0916C01F09151
:100870006D0182E08083E0916801F091690110824E
:10088000E0916A01F0916B018FEC8083109274010A
:10089000E0917001F091710186E08083E0916E013A
:1008A000F0916F01808180618083E0916E01F09111
:1008B0006F01808188608083E0916E01F0916F010B
:1008C000808180688083E0916E01F0916F0180816A
:1008D0008F7D808380911E028C3008F068C0EDEA25
:1008E000F0E02491E9E9F0E08491882399F090E028
:1008F000880F991FFC01EA57FF4FA591B491FC01A5
:10090000E458FF4F859194918FB7F894EC91E22BC6
:10091000EC938FBF80911E02282F30E0F901EE0F7B
:10092000FF1FE20FF31FE750FE4F9081907C99600C
:10093000908310921F02109220022CE0622F0E94DE
:100940006D06829FB001112430E020E0AB01420F20
:10095000531FFA01EE0FFF1FE40FF51FE750FE4F84
:10096000908196FD16C02F5F3F4F2C30310571F7F7
:1009700081110FC01092800082E08093810010925C
:10098000850010928400B19A80916F0082608093FC
:100990006F00E0911E028E2F90E0FC01EE0FFF1F12
:1009A000E80FF91FE750FE4F808180648083BAE032
:1009B0004B2E512C612C712C18E5212E12E0312E7A
:1009C0008CE591E00E942501181619060CF0F6C07E
:1009D0000E94E500FC0197FD00C18D32910541F0B8
:1009E000C0970A9728F08CE591E00E94C300F0CFF1
:1009F000C12CD12C760110E0E130F105D9F0ED32B7
:100A0000F10509F4E8C0CF01C0970A9798F4AAE06D
:100A1000B0E0A70196010E9429066F01FF0FEE08C2
:100A2000FF08C60ED71EE81EF91E40E3C41AD108FF
:100A3000E108F1088CE591E00E94C3000E94E50006
:100A4000FC01C0970A97C0F2E130F105A9F2112329
:100A500041F0F094E094D094C094C11CD11CE11CEE
:100A6000F11C86E291E055EBC516D10408F0CFC029
:100A7000860180E2C81682E0D806E4F580911F0264
:100A8000E8E88E2E912C881A910887FD9394880CA3
:100A9000991C880C991C092C000CAA08BB08809191
:100AA00020029101281B310987FD3395220F331F46
:100AB000220F331F032E000C440B550B2819390944
:100AC0004A095B09D601053B110514F0A4EBB0E01F
:100AD000B7FF02C0B0E0A0E00E94340624EB30E093
:100AE00040E050E00E940A0669017A01C80CD91C56
:100AF000EA1CFB1C20911E022C3080F580911F0205
:100B0000E8E8F0E0E81BF10987FDF395CF01880FD5
:100B1000991F880F991FC816D90684F0809120026A
:100B2000A101481B510987FD5395CA01880F991FE0
:100B3000880F991FC816D9060CF4C6010297880FB2
:100B4000991F4FB7F89430E0F901EE0FFF1FE20F45
:100B5000F31FE750FE4F928381834FBF82E191E004
:100B60000E9420026801110FEE08FF08F7FE39C04D
:100B70006DE28CE591E00E94670122273327A901ED
:100B80002C193D094E095F0919A2CE0181967C01FD
:100B9000CA01B901A30192010E943C06605DF70100
:100BA00062937F01211531054105510589F7C70180
:100BB000EF2869F583E291E00E94200240E050E0D6
:100BC000452B09F4FDCE0E943101882309F4F8CEAB
:100BD0000E940000F5CE11E02DCFC12CD12C760162
:100BE00040CFA701960119A2CE0181967C01CA01CE
:100BF000B901A30192010E943C06605DF701629376
:100C00007F01211531054105510589F7D0CF0E949B
:100C10002002D0CF052E97FB1EF400940E942106DF
:100C200057FD07D00E943C0607FC03D04EF40C94FD
:100C3000210650954095309521953F4F4F4F5F4F7E
:100C4000089590958095709561957F4F8F4F9F4F38
:100C500008950E945E06A59F900DB49F900DA49FDD
:100C6000800D911D11240895B7FF0C9429060E9450
:100C70002906821B930B0895A1E21A2EAA1BBB1B07
:100C8000FD010DC0AA1FBB1FEE1FFF1FA217B30758
:100C9000E407F50720F0A21BB30BE40BF50B661F6E
:100CA000771F881F991F1A9469F760957095809532
:100CB00090959B01AC01BD01CF010895A29FB001A9
:100CC000B39FC001A39F700D811D1124911DB29F80
:100CD000700D811D1124911D0895991B79E004C0A8
:100CE000991F961708F0961B881F7A95C9F780956B
:100CF0000895EE0FFF1F0590F491E02D0994F894EC
:020D0000FFCF23
:100D02000000000067018700B400B4012501C300A0
:100D1200D700536572766F206D6F7669646F2061BC
:100D22003A20000D0A00C3816E67756C6F20696EF0
:100D320076C3A16C69646F2E204465626520736579
:100D42007220656E74726520302079203138302E21
:020D520000009F
:00000001FF
